{
  "contractName": "DrivingTestBooking",
  "abi": [
    {
      "anonymous": false,
      "inputs": [
        {
          "indexed": false,
          "internalType": "address",
          "name": "candidate",
          "type": "address"
        },
        {
          "indexed": false,
          "internalType": "uint256",
          "name": "testDate",
          "type": "uint256"
        },
        {
          "indexed": false,
          "internalType": "string",
          "name": "preferredLocation",
          "type": "string"
        },
        {
          "indexed": false,
          "internalType": "string",
          "name": "preferredVenue",
          "type": "string"
        }
      ],
      "name": "AddedToWaitlist",
      "type": "event"
    },
    {
      "anonymous": false,
      "inputs": [
        {
          "indexed": false,
          "internalType": "uint256",
          "name": "bookingId",
          "type": "uint256"
        }
      ],
      "name": "BookingCancelled",
      "type": "event"
    },
    {
      "anonymous": false,
      "inputs": [
        {
          "indexed": false,
          "internalType": "uint256",
          "name": "bookingId",
          "type": "uint256"
        },
        {
          "indexed": false,
          "internalType": "address",
          "name": "candidate",
          "type": "address"
        },
        {
          "indexed": false,
          "internalType": "uint256",
          "name": "testDate",
          "type": "uint256"
        },
        {
          "indexed": false,
          "internalType": "string",
          "name": "location",
          "type": "string"
        },
        {
          "indexed": false,
          "internalType": "string",
          "name": "venue",
          "type": "string"
        }
      ],
      "name": "BookingCreated",
      "type": "event"
    },
    {
      "anonymous": false,
      "inputs": [
        {
          "indexed": false,
          "internalType": "address",
          "name": "candidate",
          "type": "address"
        },
        {
          "indexed": false,
          "internalType": "uint256",
          "name": "bookingId",
          "type": "uint256"
        },
        {
          "indexed": false,
          "internalType": "uint256",
          "name": "testDate",
          "type": "uint256"
        },
        {
          "indexed": false,
          "internalType": "string",
          "name": "location",
          "type": "string"
        },
        {
          "indexed": false,
          "internalType": "string",
          "name": "venue",
          "type": "string"
        }
      ],
      "name": "MovedFromWaitlist",
      "type": "event"
    },
    {
      "anonymous": false,
      "inputs": [
        {
          "indexed": false,
          "internalType": "address",
          "name": "user",
          "type": "address"
        }
      ],
      "name": "UserRegistered",
      "type": "event"
    },
    {
      "inputs": [
        {
          "internalType": "uint256",
          "name": "",
          "type": "uint256"
        }
      ],
      "name": "bookings",
      "outputs": [
        {
          "internalType": "address",
          "name": "candidate",
          "type": "address"
        },
        {
          "internalType": "uint256",
          "name": "testDate",
          "type": "uint256"
        },
        {
          "internalType": "string",
          "name": "location",
          "type": "string"
        },
        {
          "internalType": "string",
          "name": "venue",
          "type": "string"
        },
        {
          "internalType": "bool",
          "name": "isActive",
          "type": "bool"
        }
      ],
      "stateMutability": "view",
      "type": "function",
      "constant": true
    },
    {
      "inputs": [],
      "name": "nextBookingId",
      "outputs": [
        {
          "internalType": "uint256",
          "name": "",
          "type": "uint256"
        }
      ],
      "stateMutability": "view",
      "type": "function",
      "constant": true
    },
    {
      "inputs": [
        {
          "internalType": "address",
          "name": "",
          "type": "address"
        }
      ],
      "name": "registeredUsers",
      "outputs": [
        {
          "internalType": "bool",
          "name": "",
          "type": "bool"
        }
      ],
      "stateMutability": "view",
      "type": "function",
      "constant": true
    },
    {
      "inputs": [
        {
          "internalType": "uint256",
          "name": "",
          "type": "uint256"
        },
        {
          "internalType": "uint256",
          "name": "",
          "type": "uint256"
        }
      ],
      "name": "waitlists",
      "outputs": [
        {
          "internalType": "address",
          "name": "candidate",
          "type": "address"
        },
        {
          "internalType": "uint256",
          "name": "testDate",
          "type": "uint256"
        },
        {
          "internalType": "string",
          "name": "preferredLocation",
          "type": "string"
        },
        {
          "internalType": "string",
          "name": "preferredVenue",
          "type": "string"
        }
      ],
      "stateMutability": "view",
      "type": "function",
      "constant": true
    },
    {
      "inputs": [],
      "name": "registerUser",
      "outputs": [],
      "stateMutability": "nonpayable",
      "type": "function"
    },
    {
      "inputs": [
        {
          "internalType": "uint256",
          "name": "_testDate",
          "type": "uint256"
        },
        {
          "internalType": "string",
          "name": "_location",
          "type": "string"
        },
        {
          "internalType": "string",
          "name": "_venue",
          "type": "string"
        }
      ],
      "name": "createBooking",
      "outputs": [],
      "stateMutability": "nonpayable",
      "type": "function"
    },
    {
      "inputs": [
        {
          "internalType": "uint256",
          "name": "_bookingId",
          "type": "uint256"
        }
      ],
      "name": "cancelBooking",
      "outputs": [],
      "stateMutability": "nonpayable",
      "type": "function"
    },
    {
      "inputs": [
        {
          "internalType": "uint256",
          "name": "_testDate",
          "type": "uint256"
        },
        {
          "internalType": "string",
          "name": "_preferredLocation",
          "type": "string"
        },
        {
          "internalType": "string",
          "name": "_preferredVenue",
          "type": "string"
        }
      ],
      "name": "joinWaitlist",
      "outputs": [],
      "stateMutability": "nonpayable",
      "type": "function"
    },
    {
      "inputs": [
        {
          "internalType": "uint256",
          "name": "_bookingId",
          "type": "uint256"
        }
      ],
      "name": "getBooking",
      "outputs": [
        {
          "internalType": "address",
          "name": "",
          "type": "address"
        },
        {
          "internalType": "uint256",
          "name": "",
          "type": "uint256"
        },
        {
          "internalType": "string",
          "name": "",
          "type": "string"
        },
        {
          "internalType": "string",
          "name": "",
          "type": "string"
        },
        {
          "internalType": "bool",
          "name": "",
          "type": "bool"
        }
      ],
      "stateMutability": "view",
      "type": "function",
      "constant": true
    },
    {
      "inputs": [
        {
          "internalType": "uint256",
          "name": "_testDate",
          "type": "uint256"
        }
      ],
      "name": "getWaitlistLength",
      "outputs": [
        {
          "internalType": "uint256",
          "name": "",
          "type": "uint256"
        }
      ],
      "stateMutability": "view",
      "type": "function",
      "constant": true
    },
    {
      "inputs": [
        {
          "internalType": "address",
          "name": "_user",
          "type": "address"
        }
      ],
      "name": "getUserWaitlistEntries",
      "outputs": [
        {
          "components": [
            {
              "internalType": "address",
              "name": "candidate",
              "type": "address"
            },
            {
              "internalType": "uint256",
              "name": "testDate",
              "type": "uint256"
            },
            {
              "internalType": "string",
              "name": "preferredLocation",
              "type": "string"
            },
            {
              "internalType": "string",
              "name": "preferredVenue",
              "type": "string"
            }
          ],
          "internalType": "struct DrivingTestBooking.WaitlistEntry[]",
          "name": "",
          "type": "tuple[]"
        }
      ],
      "stateMutability": "view",
      "type": "function",
      "constant": true
    }
  ],
  "bytecode": "0x608060405234801561001057600080fd5b50612c1e806100206000396000f3fe608060405234801561001057600080fd5b50600436106100a95760003560e01c80634d3820eb116100715780634d3820eb146101685780636a5c841a146101725780639218edba146101a6578063c318143b146101d9578063f01c164d14610209578063f859e4e114610239576100a9565b80630dca825e146100ae5780630e50cee5146100ca5780631dab301e146100fa5780631dc64ab51461012e57806326f20c791461014a575b600080fd5b6100c860048036038101906100c391906121e3565b610255565b005b6100e460048036038101906100df91906121ba565b610d28565b6040516100f1919061276f565b60405180910390f35b610114600480360381019061010f91906121e3565b610d48565b60405161012595949392919061268b565b60405180910390f35b6101486004803603810190610143919061220c565b610ebb565b005b6101526110e9565b60405161015f919061284a565b60405180910390f35b6101706110ef565b005b61018c600480360381019061018791906121e3565b61120d565b60405161019d95949392919061268b565b60405180910390f35b6101c060048036038101906101bb919061228b565b611401565b6040516101d09493929190612638565b60405180910390f35b6101f360048036038101906101ee91906121e3565b61157e565b604051610200919061284a565b60405180910390f35b610223600480360381019061021e91906121ba565b61159e565b604051610230919061274d565b60405180910390f35b610253600480360381019061024e919061220c565b611aa7565b005b600360003373ffffffffffffffffffffffffffffffffffffffff1673ffffffffffffffffffffffffffffffffffffffff16815260200190815260200160002060009054906101000a900460ff166102e1576040517f08c379a00000000000000000000000000000000000000000000000000000000081526004016102d89061278a565b60405180910390fd5b3373ffffffffffffffffffffffffffffffffffffffff1660008083815260200190815260200160002060000160009054906101000a900473ffffffffffffffffffffffffffffffffffffffff1673ffffffffffffffffffffffffffffffffffffffff1614610384576040517f08c379a000000000000000000000000000000000000000000000000000000000815260040161037b9061280a565b60405180910390fd5b60008082815260200190815260200160002060040160009054906101000a900460ff166103e6576040517f08c379a00000000000000000000000000000000000000000000000000000000081526004016103dd906127ca565b60405180910390fd5b600080600083815260200190815260200160002060040160006101000a81548160ff0219169083151502179055507ff774c001cb52a3566b767ed6e37c92706acb2b80a3ff6049e2849cd62725d08581604051610443919061284a565b60405180910390a160008060008381526020019081526020016000206001015490506000806000848152602001908152602001600020600201805461048790612aa1565b80601f01602080910402602001604051908101604052809291908181526020018280546104b390612aa1565b80156105005780601f106104d557610100808354040283529160200191610500565b820191906000526020600020905b8154815290600101906020018083116104e357829003601f168201915b505050505090506000806000858152602001908152602001600020600301805461052990612aa1565b80601f016020809104026020016040519081016040528092919081815260200182805461055590612aa1565b80156105a25780601f10610577576101008083540402835291602001916105a2565b820191906000526020600020905b81548152906001019060200180831161058557829003601f168201915b50505050509050600060026000858152602001908152602001600020805490501115610d215760005b60026000858152602001908152602001600020805490508110156109df576000600260008681526020019081526020016000208281548110610636577f4e487b7100000000000000000000000000000000000000000000000000000000600052603260045260246000fd5b90600052602060002090600402016040518060800160405290816000820160009054906101000a900473ffffffffffffffffffffffffffffffffffffffff1673ffffffffffffffffffffffffffffffffffffffff1673ffffffffffffffffffffffffffffffffffffffff168152602001600182015481526020016002820180546106bf90612aa1565b80601f01602080910402602001604051908101604052809291908181526020018280546106eb90612aa1565b80156107385780601f1061070d57610100808354040283529160200191610738565b820191906000526020600020905b81548152906001019060200180831161071b57829003601f168201915b5050505050815260200160038201805461075190612aa1565b80601f016020809104026020016040519081016040528092919081815260200182805461077d90612aa1565b80156107ca5780601f1061079f576101008083540402835291602001916107ca565b820191906000526020600020905b8154815290600101906020018083116107ad57829003601f168201915b505050505081525050905060006040518060200160405280600081525080519060200120826040015180519060200120148061081757508480519060200120826040015180519060200120145b905060006040518060200160405280600081525080519060200120836060015180519060200120148061085b57508480519060200120836060015180519060200120145b90508180156108675750805b156109c9576040518060a00160405280846000015173ffffffffffffffffffffffffffffffffffffffff168152602001888152602001878152602001868152602001600115158152506000808a815260200190815260200160002060008201518160000160006101000a81548173ffffffffffffffffffffffffffffffffffffffff021916908373ffffffffffffffffffffffffffffffffffffffff16021790555060208201518160010155604082015181600201908051906020019061092f929190611f7a565b50606082015181600301908051906020019061094c929190611f7a565b5060808201518160040160006101000a81548160ff02191690831515021790555090505061097a8785611cb7565b7f4df6aaa1b12a44a29af9e6e38656cf4978e31d3a53b28e490de7d85e802e17dc8360000151898989896040516109b59594939291906126ec565b60405180910390a150505050505050610d25565b50505080806109d790612ad3565b9150506105cb565b50600060026000858152602001908152602001600020600081548110610a2e577f4e487b7100000000000000000000000000000000000000000000000000000000600052603260045260246000fd5b90600052602060002090600402016040518060800160405290816000820160009054906101000a900473ffffffffffffffffffffffffffffffffffffffff1673ffffffffffffffffffffffffffffffffffffffff1673ffffffffffffffffffffffffffffffffffffffff16815260200160018201548152602001600282018054610ab790612aa1565b80601f0160208091040260200160405190810160405280929190818152602001828054610ae390612aa1565b8015610b305780601f10610b0557610100808354040283529160200191610b30565b820191906000526020600020905b815481529060010190602001808311610b1357829003601f168201915b50505050508152602001600382018054610b4990612aa1565b80601f0160208091040260200160405190810160405280929190818152602001828054610b7590612aa1565b8015610bc25780601f10610b9757610100808354040283529160200191610bc2565b820191906000526020600020905b815481529060010190602001808311610ba557829003601f168201915b50505050508152505090506040518060a00160405280826000015173ffffffffffffffffffffffffffffffffffffffff1681526020018581526020018481526020018381526020016001151581525060008087815260200190815260200160002060008201518160000160006101000a81548173ffffffffffffffffffffffffffffffffffffffff021916908373ffffffffffffffffffffffffffffffffffffffff160217905550602082015181600101556040820151816002019080519060200190610c90929190611f7a565b506060820151816003019080519060200190610cad929190611f7a565b5060808201518160040160006101000a81548160ff021916908315150217905550905050610cdc846000611cb7565b7f4df6aaa1b12a44a29af9e6e38656cf4978e31d3a53b28e490de7d85e802e17dc816000015186868686604051610d179594939291906126ec565b60405180910390a1505b5050505b50565b60036020528060005260406000206000915054906101000a900460ff1681565b60006020528060005260406000206000915090508060000160009054906101000a900473ffffffffffffffffffffffffffffffffffffffff1690806001015490806002018054610d9790612aa1565b80601f0160208091040260200160405190810160405280929190818152602001828054610dc390612aa1565b8015610e105780601f10610de557610100808354040283529160200191610e10565b820191906000526020600020905b815481529060010190602001808311610df357829003601f168201915b505050505090806003018054610e2590612aa1565b80601f0160208091040260200160405190810160405280929190818152602001828054610e5190612aa1565b8015610e9e5780601f10610e7357610100808354040283529160200191610e9e565b820191906000526020600020905b815481529060010190602001808311610e8157829003601f168201915b5050505050908060040160009054906101000a900460ff16905085565b600360003373ffffffffffffffffffffffffffffffffffffffff1673ffffffffffffffffffffffffffffffffffffffff16815260200190815260200160002060009054906101000a900460ff16610f47576040517f08c379a0000000000000000000000000000000000000000000000000000000008152600401610f3e9061278a565b60405180910390fd5b428311610f89576040517f08c379a0000000000000000000000000000000000000000000000000000000008152600401610f80906127aa565b60405180910390fd5b600060016000815480929190610f9e90612ad3565b9190505590506040518060a001604052803373ffffffffffffffffffffffffffffffffffffffff1681526020018581526020018481526020018381526020016001151581525060008083815260200190815260200160002060008201518160000160006101000a81548173ffffffffffffffffffffffffffffffffffffffff021916908373ffffffffffffffffffffffffffffffffffffffff160217905550602082015181600101556040820151816002019080519060200190611063929190611f7a565b506060820151816003019080519060200190611080929190611f7a565b5060808201518160040160006101000a81548160ff0219169083151502179055509050507f7f8a0d38740843d0ee5a72fbb0d8eb7ba17e011706fc41ad190cbd825d158b5881338686866040516110db959493929190612865565b60405180910390a150505050565b60015481565b600360003373ffffffffffffffffffffffffffffffffffffffff1673ffffffffffffffffffffffffffffffffffffffff16815260200190815260200160002060009054906101000a900460ff161561117c576040517f08c379a00000000000000000000000000000000000000000000000000000000081526004016111739061282a565b60405180910390fd5b6001600360003373ffffffffffffffffffffffffffffffffffffffff1673ffffffffffffffffffffffffffffffffffffffff16815260200190815260200160002060006101000a81548160ff0219169083151502179055507f54db7a5cb4735e1aac1f53db512d3390390bb6637bd30ad4bf9fc98667d9b9b933604051611203919061261d565b60405180910390a1565b6000806060806000806000808881526020019081526020016000206040518060a00160405290816000820160009054906101000a900473ffffffffffffffffffffffffffffffffffffffff1673ffffffffffffffffffffffffffffffffffffffff1673ffffffffffffffffffffffffffffffffffffffff168152602001600182015481526020016002820180546112a390612aa1565b80601f01602080910402602001604051908101604052809291908181526020018280546112cf90612aa1565b801561131c5780601f106112f15761010080835404028352916020019161131c565b820191906000526020600020905b8154815290600101906020018083116112ff57829003601f168201915b5050505050815260200160038201805461133590612aa1565b80601f016020809104026020016040519081016040528092919081815260200182805461136190612aa1565b80156113ae5780601f10611383576101008083540402835291602001916113ae565b820191906000526020600020905b81548152906001019060200180831161139157829003601f168201915b505050505081526020016004820160009054906101000a900460ff161515151581525050905080600001518160200151826040015183606001518460800151955095509550955095505091939590929450565b6002602052816000526040600020818154811061141d57600080fd5b9060005260206000209060040201600091509150508060000160009054906101000a900473ffffffffffffffffffffffffffffffffffffffff169080600101549080600201805461146d90612aa1565b80601f016020809104026020016040519081016040528092919081815260200182805461149990612aa1565b80156114e65780601f106114bb576101008083540402835291602001916114e6565b820191906000526020600020905b8154815290600101906020018083116114c957829003601f168201915b5050505050908060030180546114fb90612aa1565b80601f016020809104026020016040519081016040528092919081815260200182805461152790612aa1565b80156115745780601f1061154957610100808354040283529160200191611574565b820191906000526020600020905b81548152906001019060200180831161155757829003601f168201915b5050505050905084565b600060026000838152602001908152602001600020805490509050919050565b60606000804290505b6301e13380426115b7919061298d565b8110156116c85760005b60026000838152602001908152602001600020805490508110156116b1578473ffffffffffffffffffffffffffffffffffffffff16600260008481526020019081526020016000208281548110611641577f4e487b7100000000000000000000000000000000000000000000000000000000600052603260045260246000fd5b906000526020600020906004020160000160009054906101000a900473ffffffffffffffffffffffffffffffffffffffff1673ffffffffffffffffffffffffffffffffffffffff16141561169e57828061169a90612ad3565b9350505b80806116a990612ad3565b9150506115c1565b5062015180816116c1919061298d565b90506115a7565b5060008167ffffffffffffffff81111561170b577f4e487b7100000000000000000000000000000000000000000000000000000000600052604160045260246000fd5b60405190808252806020026020018201604052801561174457816020015b611731612000565b8152602001906001900390816117295790505b5090506000804290505b6301e133804261175e919061298d565b811015611a9b5760005b6002600083815260200190815260200160002080549050811015611a84578673ffffffffffffffffffffffffffffffffffffffff166002600084815260200190815260200160002082815481106117e8577f4e487b7100000000000000000000000000000000000000000000000000000000600052603260045260246000fd5b906000526020600020906004020160000160009054906101000a900473ffffffffffffffffffffffffffffffffffffffff1673ffffffffffffffffffffffffffffffffffffffff161415611a7157600260008381526020019081526020016000208181548110611881577f4e487b7100000000000000000000000000000000000000000000000000000000600052603260045260246000fd5b90600052602060002090600402016040518060800160405290816000820160009054906101000a900473ffffffffffffffffffffffffffffffffffffffff1673ffffffffffffffffffffffffffffffffffffffff1673ffffffffffffffffffffffffffffffffffffffff1681526020016001820154815260200160028201805461190a90612aa1565b80601f016020809104026020016040519081016040528092919081815260200182805461193690612aa1565b80156119835780601f1061195857610100808354040283529160200191611983565b820191906000526020600020905b81548152906001019060200180831161196657829003601f168201915b5050505050815260200160038201805461199c90612aa1565b80601f01602080910402602001604051908101604052809291908181526020018280546119c890612aa1565b8015611a155780601f106119ea57610100808354040283529160200191611a15565b820191906000526020600020905b8154815290600101906020018083116119f857829003601f168201915b505050505081525050848481518110611a57577f4e487b7100000000000000000000000000000000000000000000000000000000600052603260045260246000fd5b60200260200101819052508280611a6d90612ad3565b9350505b8080611a7c90612ad3565b915050611768565b506201518081611a94919061298d565b905061174e565b50819350505050919050565b600360003373ffffffffffffffffffffffffffffffffffffffff1673ffffffffffffffffffffffffffffffffffffffff16815260200190815260200160002060009054906101000a900460ff16611b33576040517f08c379a0000000000000000000000000000000000000000000000000000000008152600401611b2a9061278a565b60405180910390fd5b428311611b75576040517f08c379a0000000000000000000000000000000000000000000000000000000008152600401611b6c906127aa565b60405180910390fd5b6002600084815260200190815260200160002060405180608001604052803373ffffffffffffffffffffffffffffffffffffffff16815260200185815260200184815260200183815250908060018154018082558091505060019003906000526020600020906004020160009091909190915060008201518160000160006101000a81548173ffffffffffffffffffffffffffffffffffffffff021916908373ffffffffffffffffffffffffffffffffffffffff160217905550602082015181600101556040820151816002019080519060200190611c55929190611f7a565b506060820151816003019080519060200190611c72929190611f7a565b5050507f59cef0cc0580ed1d2de0771700ca28a36f3ce980a499e313521099c2f67f078833848484604051611caa9493929190612638565b60405180910390a1505050565b60026000838152602001908152602001600020805490508110611d0f576040517f08c379a0000000000000000000000000000000000000000000000000000000008152600401611d06906127ea565b60405180910390fd5b60008190505b60016002600085815260200190815260200160002080549050611d3891906129e3565b811015611ec45760026000848152602001908152602001600020600182611d5f919061298d565b81548110611d96577f4e487b7100000000000000000000000000000000000000000000000000000000600052603260045260246000fd5b9060005260206000209060040201600260008581526020019081526020016000208281548110611def577f4e487b7100000000000000000000000000000000000000000000000000000000600052603260045260246000fd5b90600052602060002090600402016000820160009054906101000a900473ffffffffffffffffffffffffffffffffffffffff168160000160006101000a81548173ffffffffffffffffffffffffffffffffffffffff021916908373ffffffffffffffffffffffffffffffffffffffff160217905550600182015481600101556002820181600201908054611e8290612aa1565b611e8d92919061203e565b506003820181600301908054611ea290612aa1565b611ead92919061203e565b509050508080611ebc90612ad3565b915050611d15565b5060026000838152602001908152602001600020805480611f0e577f4e487b7100000000000000000000000000000000000000000000000000000000600052603160045260246000fd5b6001900381819060005260206000209060040201600080820160006101000a81549073ffffffffffffffffffffffffffffffffffffffff02191690556001820160009055600282016000611f6291906120cb565b600382016000611f7291906120cb565b505090555050565b828054611f8690612aa1565b90600052602060002090601f016020900481019282611fa85760008555611fef565b82601f10611fc157805160ff1916838001178555611fef565b82800160010185558215611fef579182015b82811115611fee578251825591602001919060010190611fd3565b5b509050611ffc919061210b565b5090565b6040518060800160405280600073ffffffffffffffffffffffffffffffffffffffff1681526020016000815260200160608152602001606081525090565b82805461204a90612aa1565b90600052602060002090601f01602090048101928261206c57600085556120ba565b82601f1061207d57805485556120ba565b828001600101855582156120ba57600052602060002091601f016020900482015b828111156120b957825482559160010191906001019061209e565b5b5090506120c7919061210b565b5090565b5080546120d790612aa1565b6000825580601f106120e95750612108565b601f016020900490600052602060002090810190612107919061210b565b5b50565b5b8082111561212457600081600090555060010161210c565b5090565b600061213b612136846128f7565b6128c6565b90508281526020810184848401111561215357600080fd5b61215e848285612a5f565b509392505050565b60008135905061217581612bba565b92915050565b600082601f83011261218c57600080fd5b813561219c848260208601612128565b91505092915050565b6000813590506121b481612bd1565b92915050565b6000602082840312156121cc57600080fd5b60006121da84828501612166565b91505092915050565b6000602082840312156121f557600080fd5b6000612203848285016121a5565b91505092915050565b60008060006060848603121561222157600080fd5b600061222f868287016121a5565b935050602084013567ffffffffffffffff81111561224c57600080fd5b6122588682870161217b565b925050604084013567ffffffffffffffff81111561227557600080fd5b6122818682870161217b565b9150509250925092565b6000806040838503121561229e57600080fd5b60006122ac858286016121a5565b92505060206122bd858286016121a5565b9150509250929050565b60006122d38383612595565b905092915050565b6122e481612a17565b82525050565b6122f381612a17565b82525050565b600061230482612937565b61230e818561295a565b93508360208202850161232085612927565b8060005b8581101561235c578484038952815161233d85826122c7565b94506123488361294d565b925060208a01995050600181019050612324565b50829750879550505050505092915050565b61237781612a29565b82525050565b600061238882612942565b612392818561296b565b93506123a2818560208601612a6e565b6123ab81612ba9565b840191505092915050565b60006123c182612942565b6123cb818561297c565b93506123db818560208601612a6e565b6123e481612ba9565b840191505092915050565b60006123fc60168361297c565b91507f55736572206973206e6f742072656769737465726564000000000000000000006000830152602082019050919050565b600061243c601f8361297c565b91507f546573742064617465206d75737420626520696e2074686520667574757265006000830152602082019050919050565b600061247c60158361297c565b91507f426f6f6b696e67206973206e6f742061637469766500000000000000000000006000830152602082019050919050565b60006124bc60138361297c565b91507f496e646578206f7574206f6620626f756e6473000000000000000000000000006000830152602082019050919050565b60006124fc60218361297c565b91507f4f6e6c792074686520626f6f6b696e67206f776e65722063616e2063616e636560008301527f6c000000000000000000000000000000000000000000000000000000000000006020830152604082019050919050565b6000612562601a8361297c565b91507f5573657220697320616c726561647920726567697374657265640000000000006000830152602082019050919050565b60006080830160008301516125ad60008601826122db565b5060208301516125c060208601826125ff565b50604083015184820360408601526125d8828261237d565b915050606083015184820360608601526125f2828261237d565b9150508091505092915050565b61260881612a55565b82525050565b61261781612a55565b82525050565b600060208201905061263260008301846122ea565b92915050565b600060808201905061264d60008301876122ea565b61265a602083018661260e565b818103604083015261266c81856123b6565b9050818103606083015261268081846123b6565b905095945050505050565b600060a0820190506126a060008301886122ea565b6126ad602083018761260e565b81810360408301526126bf81866123b6565b905081810360608301526126d381856123b6565b90506126e2608083018461236e565b9695505050505050565b600060a08201905061270160008301886122ea565b61270e602083018761260e565b61271b604083018661260e565b818103606083015261272d81856123b6565b9050818103608083015261274181846123b6565b90509695505050505050565b6000602082019050818103600083015261276781846122f9565b905092915050565b6000602082019050612784600083018461236e565b92915050565b600060208201905081810360008301526127a3816123ef565b9050919050565b600060208201905081810360008301526127c38161242f565b9050919050565b600060208201905081810360008301526127e38161246f565b9050919050565b60006020820190508181036000830152612803816124af565b9050919050565b60006020820190508181036000830152612823816124ef565b9050919050565b6000602082019050818103600083015261284381612555565b9050919050565b600060208201905061285f600083018461260e565b92915050565b600060a08201905061287a600083018861260e565b61288760208301876122ea565b612894604083018661260e565b81810360608301526128a681856123b6565b905081810360808301526128ba81846123b6565b90509695505050505050565b6000604051905081810181811067ffffffffffffffff821117156128ed576128ec612b7a565b5b8060405250919050565b600067ffffffffffffffff82111561291257612911612b7a565b5b601f19601f8301169050602081019050919050565b6000819050602082019050919050565b600081519050919050565b600081519050919050565b6000602082019050919050565b600082825260208201905092915050565b600082825260208201905092915050565b600082825260208201905092915050565b600061299882612a55565b91506129a383612a55565b9250827fffffffffffffffffffffffffffffffffffffffffffffffffffffffffffffffff038211156129d8576129d7612b1c565b5b828201905092915050565b60006129ee82612a55565b91506129f983612a55565b925082821015612a0c57612a0b612b1c565b5b828203905092915050565b6000612a2282612a35565b9050919050565b60008115159050919050565b600073ffffffffffffffffffffffffffffffffffffffff82169050919050565b6000819050919050565b82818337600083830152505050565b60005b83811015612a8c578082015181840152602081019050612a71565b83811115612a9b576000848401525b50505050565b60006002820490506001821680612ab957607f821691505b60208210811415612acd57612acc612b4b565b5b50919050565b6000612ade82612a55565b91507fffffffffffffffffffffffffffffffffffffffffffffffffffffffffffffffff821415612b1157612b10612b1c565b5b600182019050919050565b7f4e487b7100000000000000000000000000000000000000000000000000000000600052601160045260246000fd5b7f4e487b7100000000000000000000000000000000000000000000000000000000600052602260045260246000fd5b7f4e487b7100000000000000000000000000000000000000000000000000000000600052604160045260246000fd5b6000601f19601f8301169050919050565b612bc381612a17565b8114612bce57600080fd5b50565b612bda81612a55565b8114612be557600080fd5b5056fea2646970667358221220efd2dae7e34a211ca6d9e45103b60f59a29e1436550d3e73840df58baec83cf364736f6c63430008000033",
  "immutableReferences": {},
  "source": "// SPDX-License-Identifier: MIT\npragma solidity ^0.8.0;\n\ncontract DrivingTestBooking {\n    struct Booking {\n        address candidate;\n        uint256 testDate;\n        string location;\n        string venue;\n        bool isActive;\n    }\n\n    struct WaitlistEntry {\n        address candidate;\n        uint256 testDate;\n        string preferredLocation;\n        string preferredVenue;\n    }\n\n    mapping(uint256 => Booking) public bookings;\n    uint256 public nextBookingId;\n\n    //mapping(uint256 => WaitlistEntry[]) public waitlists;\n    mapping(uint256 => WaitlistEntry[]) public waitlists;\n\n\n\n    mapping(address => bool) public registeredUsers;\n\n    event UserRegistered(address user);\n    event BookingCreated(uint256 bookingId, address candidate, uint256 testDate, string location, string venue);\n    event BookingCancelled(uint256 bookingId);\n    event AddedToWaitlist(address candidate, uint256 testDate, string preferredLocation, string preferredVenue);\n    event MovedFromWaitlist(address candidate, uint256 bookingId, uint256 testDate, string location, string venue);\n\n    modifier onlyRegistered() {\n        require(registeredUsers[msg.sender], \"User is not registered\");\n        _;\n    }\n\n    function registerUser() public {\n        require(!registeredUsers[msg.sender], \"User is already registered\");\n        registeredUsers[msg.sender] = true;\n        emit UserRegistered(msg.sender);\n    }\n\n    function createBooking(uint256 _testDate, string memory _location, string memory _venue) public onlyRegistered {\n        require(_testDate > block.timestamp, \"Test date must be in the future\");\n\n        uint256 bookingId = nextBookingId++;\n        bookings[bookingId] = Booking(msg.sender, _testDate, _location, _venue, true);\n\n        emit BookingCreated(bookingId, msg.sender, _testDate, _location, _venue);\n    }\n\n    function cancelBooking(uint256 _bookingId) public onlyRegistered {\n        require(bookings[_bookingId].candidate == msg.sender, \"Only the booking owner can cancel\");\n        require(bookings[_bookingId].isActive, \"Booking is not active\");\n        \n        bookings[_bookingId].isActive = false;\n        emit BookingCancelled(_bookingId);\n        \n        uint256 testDate = bookings[_bookingId].testDate;\n        string memory location = bookings[_bookingId].location;\n        string memory venue = bookings[_bookingId].venue;\n        \n        if (waitlists[testDate].length > 0) {\n            for (uint i = 0; i < waitlists[testDate].length; i++) {\n                WaitlistEntry memory entry = waitlists[testDate][i];\n                bool matchLocation = keccak256(bytes(entry.preferredLocation)) == keccak256(bytes(\"\")) || \n                                    keccak256(bytes(entry.preferredLocation)) == keccak256(bytes(location));\n                bool matchVenue = keccak256(bytes(entry.preferredVenue)) == keccak256(bytes(\"\")) || \n                                keccak256(bytes(entry.preferredVenue)) == keccak256(bytes(venue));\n                \n                if (matchLocation && matchVenue) {\n                    bookings[_bookingId] = Booking(entry.candidate, testDate, location, venue, true);\n                    removeFromWaitlist(testDate, i);\n                    emit MovedFromWaitlist(entry.candidate, _bookingId, testDate, location, venue);\n                    return;\n                }\n            }\n            \n            // If no preferred match found, assign to the first person in the waitlist\n            WaitlistEntry memory firstEntry = waitlists[testDate][0];\n            bookings[_bookingId] = Booking(firstEntry.candidate, testDate, location, venue, true);\n            removeFromWaitlist(testDate, 0);\n            emit MovedFromWaitlist(firstEntry.candidate, _bookingId, testDate, location, venue);\n        }\n    }\n\n    function joinWaitlist(uint256 _testDate, string memory _preferredLocation, string memory _preferredVenue) public onlyRegistered {\n        require(_testDate > block.timestamp, \"Test date must be in the future\");\n        waitlists[_testDate].push(WaitlistEntry(msg.sender, _testDate, _preferredLocation, _preferredVenue));\n        emit AddedToWaitlist(msg.sender, _testDate, _preferredLocation, _preferredVenue);\n    }\n\n    function getBooking(uint256 _bookingId) public view returns (address, uint256, string memory, string memory, bool) {\n        Booking memory booking = bookings[_bookingId];\n        return (booking.candidate, booking.testDate, booking.location, booking.venue, booking.isActive);\n    }\n\n    function getWaitlistLength(uint256 _testDate) public view returns (uint256) {\n        return waitlists[_testDate].length;\n    }\n\n    function removeFromWaitlist(uint256 _testDate, uint256 _index) internal {\n        require(_index < waitlists[_testDate].length, \"Index out of bounds\");\n        for (uint i = _index; i < waitlists[_testDate].length - 1; i++) {\n            waitlists[_testDate][i] = waitlists[_testDate][i + 1];\n        }\n        waitlists[_testDate].pop();\n    }\n\n    function getUserWaitlistEntries(address _user) public view returns (WaitlistEntry[] memory) {\n        uint256 count = 0;\n        for (uint256 date = block.timestamp; date < block.timestamp + 365 days; date += 1 days) {\n            for (uint i = 0; i < waitlists[date].length; i++) {\n                if (waitlists[date][i].candidate == _user) {\n                    count++;\n                }\n            }\n        }\n\n        WaitlistEntry[] memory userEntries = new WaitlistEntry[](count);\n        uint256 index = 0;\n        for (uint256 date = block.timestamp; date < block.timestamp + 365 days; date += 1 days) {\n            for (uint i = 0; i < waitlists[date].length; i++) {\n                if (waitlists[date][i].candidate == _user) {\n                    userEntries[index] = waitlists[date][i];\n                    index++;\n                }\n            }\n        }\n\n        return userEntries;\n    }\n}",
  "sourcePath": "/Users/yuqi/Desktop/MSE_Learn/907_final/for_907_final/project/contracts/DrivingTestBooking.sol",
  "compiler": {
    "name": "solc",
    "version": "0.8.0+commit.c7dfd78e.Emscripten.clang"
  },
  "schemaVersion": "3.4.16",
  "updatedAt": "2024-10-21T12:30:40.622Z",
  "networkType": "ethereum",
  "devdoc": {
    "kind": "dev",
    "methods": {},
    "version": 1
  },
  "userdoc": {
    "kind": "user",
    "methods": {},
    "version": 1
  }
}