{
  "contractName": "DrivingTestBooking",
  "abi": [
    {
      "anonymous": false,
      "inputs": [
        {
          "indexed": false,
          "internalType": "address",
          "name": "candidate",
          "type": "address"
        },
        {
          "indexed": false,
          "internalType": "uint256",
          "name": "testDate",
          "type": "uint256"
        }
      ],
      "name": "AddedToWaitlist",
      "type": "event"
    },
    {
      "anonymous": false,
      "inputs": [
        {
          "indexed": false,
          "internalType": "uint256",
          "name": "bookingId",
          "type": "uint256"
        }
      ],
      "name": "BookingCancelled",
      "type": "event"
    },
    {
      "anonymous": false,
      "inputs": [
        {
          "indexed": false,
          "internalType": "uint256",
          "name": "bookingId",
          "type": "uint256"
        },
        {
          "indexed": false,
          "internalType": "address",
          "name": "candidate",
          "type": "address"
        },
        {
          "indexed": false,
          "internalType": "uint256",
          "name": "testDate",
          "type": "uint256"
        },
        {
          "indexed": false,
          "internalType": "string",
          "name": "location",
          "type": "string"
        },
        {
          "indexed": false,
          "internalType": "string",
          "name": "venue",
          "type": "string"
        }
      ],
      "name": "BookingCreated",
      "type": "event"
    },
    {
      "anonymous": false,
      "inputs": [
        {
          "indexed": false,
          "internalType": "address",
          "name": "candidate",
          "type": "address"
        },
        {
          "indexed": false,
          "internalType": "uint256",
          "name": "bookingId",
          "type": "uint256"
        },
        {
          "indexed": false,
          "internalType": "uint256",
          "name": "testDate",
          "type": "uint256"
        }
      ],
      "name": "MovedFromWaitlist",
      "type": "event"
    },
    {
      "anonymous": false,
      "inputs": [
        {
          "indexed": false,
          "internalType": "address",
          "name": "user",
          "type": "address"
        }
      ],
      "name": "UserRegistered",
      "type": "event"
    },
    {
      "inputs": [
        {
          "internalType": "uint256",
          "name": "",
          "type": "uint256"
        }
      ],
      "name": "bookings",
      "outputs": [
        {
          "internalType": "address",
          "name": "candidate",
          "type": "address"
        },
        {
          "internalType": "uint256",
          "name": "testDate",
          "type": "uint256"
        },
        {
          "internalType": "string",
          "name": "location",
          "type": "string"
        },
        {
          "internalType": "string",
          "name": "venue",
          "type": "string"
        },
        {
          "internalType": "bool",
          "name": "isActive",
          "type": "bool"
        }
      ],
      "stateMutability": "view",
      "type": "function"
    },
    {
      "inputs": [],
      "name": "nextBookingId",
      "outputs": [
        {
          "internalType": "uint256",
          "name": "",
          "type": "uint256"
        }
      ],
      "stateMutability": "view",
      "type": "function"
    },
    {
      "inputs": [
        {
          "internalType": "address",
          "name": "",
          "type": "address"
        }
      ],
      "name": "registeredUsers",
      "outputs": [
        {
          "internalType": "bool",
          "name": "",
          "type": "bool"
        }
      ],
      "stateMutability": "view",
      "type": "function"
    },
    {
      "inputs": [
        {
          "internalType": "uint256",
          "name": "",
          "type": "uint256"
        },
        {
          "internalType": "uint256",
          "name": "",
          "type": "uint256"
        }
      ],
      "name": "waitlists",
      "outputs": [
        {
          "internalType": "address",
          "name": "candidate",
          "type": "address"
        },
        {
          "internalType": "uint256",
          "name": "testDate",
          "type": "uint256"
        }
      ],
      "stateMutability": "view",
      "type": "function"
    },
    {
      "inputs": [],
      "name": "registerUser",
      "outputs": [],
      "stateMutability": "nonpayable",
      "type": "function"
    },
    {
      "inputs": [
        {
          "internalType": "uint256",
          "name": "_testDate",
          "type": "uint256"
        },
        {
          "internalType": "string",
          "name": "_location",
          "type": "string"
        },
        {
          "internalType": "string",
          "name": "_venue",
          "type": "string"
        }
      ],
      "name": "createBooking",
      "outputs": [],
      "stateMutability": "nonpayable",
      "type": "function"
    },
    {
      "inputs": [
        {
          "internalType": "uint256",
          "name": "_bookingId",
          "type": "uint256"
        }
      ],
      "name": "cancelBooking",
      "outputs": [],
      "stateMutability": "nonpayable",
      "type": "function"
    },
    {
      "inputs": [
        {
          "internalType": "uint256",
          "name": "_testDate",
          "type": "uint256"
        }
      ],
      "name": "joinWaitlist",
      "outputs": [],
      "stateMutability": "nonpayable",
      "type": "function"
    },
    {
      "inputs": [
        {
          "internalType": "uint256",
          "name": "_bookingId",
          "type": "uint256"
        }
      ],
      "name": "getBooking",
      "outputs": [
        {
          "internalType": "address",
          "name": "",
          "type": "address"
        },
        {
          "internalType": "uint256",
          "name": "",
          "type": "uint256"
        },
        {
          "internalType": "string",
          "name": "",
          "type": "string"
        },
        {
          "internalType": "string",
          "name": "",
          "type": "string"
        },
        {
          "internalType": "bool",
          "name": "",
          "type": "bool"
        }
      ],
      "stateMutability": "view",
      "type": "function"
    },
    {
      "inputs": [
        {
          "internalType": "uint256",
          "name": "_testDate",
          "type": "uint256"
        }
      ],
      "name": "getWaitlistLength",
      "outputs": [
        {
          "internalType": "uint256",
          "name": "",
          "type": "uint256"
        }
      ],
      "stateMutability": "view",
      "type": "function"
    }
  ],
  "bytecode": "0x608060405234801561001057600080fd5b50611be4806100206000396000f3fe608060405234801561001057600080fd5b506004361061009e5760003560e01c80634d3820eb116100665780634d3820eb1461015d5780636a5c841a146101675780639218edba1461019b578063c318143b146101cc578063fbb07e2d146101fc5761009e565b80630dca825e146100a35780630e50cee5146100bf5780631dab301e146100ef5780631dc64ab51461012357806326f20c791461013f575b600080fd5b6100bd60048036038101906100b89190611413565b610218565b005b6100d960048036038101906100d491906113ea565b610997565b6040516100e6919061179f565b60405180910390f35b61010960048036038101906101049190611413565b6109b7565b60405161011a959493929190611707565b60405180910390f35b61013d6004803603810190610138919061143c565b610b2a565b005b610147610d58565b604051610154919061185a565b60405180910390f35b610165610d5e565b005b610181600480360381019061017c9190611413565b610e7c565b604051610192959493929190611707565b60405180910390f35b6101b560048036038101906101b091906114bb565b611070565b6040516101c39291906116de565b60405180910390f35b6101e660048036038101906101e19190611413565b6110d1565b6040516101f3919061185a565b60405180910390f35b61021660048036038101906102119190611413565b6110f1565b005b3373ffffffffffffffffffffffffffffffffffffffff1660008083815260200190815260200160002060000160009054906101000a900473ffffffffffffffffffffffffffffffffffffffff1673ffffffffffffffffffffffffffffffffffffffff16146102bb576040517f08c379a00000000000000000000000000000000000000000000000000000000081526004016102b29061181a565b60405180910390fd5b60008082815260200190815260200160002060040160009054906101000a900460ff1661031d576040517f08c379a0000000000000000000000000000000000000000000000000000000008152600401610314906117fa565b60405180910390fd5b600360003373ffffffffffffffffffffffffffffffffffffffff1673ffffffffffffffffffffffffffffffffffffffff16815260200190815260200160002060009054906101000a900460ff166103a9576040517f08c379a00000000000000000000000000000000000000000000000000000000081526004016103a0906117ba565b60405180910390fd5b600080600083815260200190815260200160002060040160006101000a81548160ff0219169083151502179055507ff774c001cb52a3566b767ed6e37c92706acb2b80a3ff6049e2849cd62725d08581604051610406919061185a565b60405180910390a1600080600083815260200190815260200160002060010154905060006002600083815260200190815260200160002080549050111561099357600060026000838152602001908152602001600020600081548110610495577f4e487b7100000000000000000000000000000000000000000000000000000000600052603260045260246000fd5b90600052602060002090600202016040518060400160405290816000820160009054906101000a900473ffffffffffffffffffffffffffffffffffffffff1673ffffffffffffffffffffffffffffffffffffffff1673ffffffffffffffffffffffffffffffffffffffff16815260200160018201548152505090506040518060a00160405280826000015173ffffffffffffffffffffffffffffffffffffffff168152602001838152602001600080868152602001908152602001600020600201805461056190611a67565b80601f016020809104026020016040519081016040528092919081815260200182805461058d90611a67565b80156105da5780601f106105af576101008083540402835291602001916105da565b820191906000526020600020905b8154815290600101906020018083116105bd57829003601f168201915b50505050508152602001600080868152602001908152602001600020600301805461060490611a67565b80601f016020809104026020016040519081016040528092919081815260200182805461063090611a67565b801561067d5780601f106106525761010080835404028352916020019161067d565b820191906000526020600020905b81548152906001019060200180831161066057829003601f168201915b505050505081526020016001151581525060008085815260200190815260200160002060008201518160000160006101000a81548173ffffffffffffffffffffffffffffffffffffffff021916908373ffffffffffffffffffffffffffffffffffffffff16021790555060208201518160010155604082015181600201908051906020019061070d9291906112b5565b50606082015181600301908051906020019061072a9291906112b5565b5060808201518160040160006101000a81548160ff02191690831515021790555090505060005b6001600260008581526020019081526020016000208054905061077491906119a9565b8110156108c0576002600084815260200190815260200160002060018261079b9190611953565b815481106107d2577f4e487b7100000000000000000000000000000000000000000000000000000000600052603260045260246000fd5b906000526020600020906002020160026000858152602001908152602001600020828154811061082b577f4e487b7100000000000000000000000000000000000000000000000000000000600052603260045260246000fd5b90600052602060002090600202016000820160009054906101000a900473ffffffffffffffffffffffffffffffffffffffff168160000160006101000a81548173ffffffffffffffffffffffffffffffffffffffff021916908373ffffffffffffffffffffffffffffffffffffffff1602179055506001820154816001015590505080806108b890611a99565b915050610751565b506002600083815260200190815260200160002080548061090a577f4e487b7100000000000000000000000000000000000000000000000000000000600052603160045260246000fd5b6001900381819060005260206000209060020201600080820160006101000a81549073ffffffffffffffffffffffffffffffffffffffff02191690556001820160009055505090557f69605bfb18b83f879daefed9092765ef240e06338e7ab53162b3c781af0d13618160000151848460405161098993929190611768565b60405180910390a1505b5050565b60036020528060005260406000206000915054906101000a900460ff1681565b60006020528060005260406000206000915090508060000160009054906101000a900473ffffffffffffffffffffffffffffffffffffffff1690806001015490806002018054610a0690611a67565b80601f0160208091040260200160405190810160405280929190818152602001828054610a3290611a67565b8015610a7f5780601f10610a5457610100808354040283529160200191610a7f565b820191906000526020600020905b815481529060010190602001808311610a6257829003601f168201915b505050505090806003018054610a9490611a67565b80601f0160208091040260200160405190810160405280929190818152602001828054610ac090611a67565b8015610b0d5780601f10610ae257610100808354040283529160200191610b0d565b820191906000526020600020905b815481529060010190602001808311610af057829003601f168201915b5050505050908060040160009054906101000a900460ff16905085565b600360003373ffffffffffffffffffffffffffffffffffffffff1673ffffffffffffffffffffffffffffffffffffffff16815260200190815260200160002060009054906101000a900460ff16610bb6576040517f08c379a0000000000000000000000000000000000000000000000000000000008152600401610bad906117ba565b60405180910390fd5b428311610bf8576040517f08c379a0000000000000000000000000000000000000000000000000000000008152600401610bef906117da565b60405180910390fd5b600060016000815480929190610c0d90611a99565b9190505590506040518060a001604052803373ffffffffffffffffffffffffffffffffffffffff1681526020018581526020018481526020018381526020016001151581525060008083815260200190815260200160002060008201518160000160006101000a81548173ffffffffffffffffffffffffffffffffffffffff021916908373ffffffffffffffffffffffffffffffffffffffff160217905550602082015181600101556040820151816002019080519060200190610cd29291906112b5565b506060820151816003019080519060200190610cef9291906112b5565b5060808201518160040160006101000a81548160ff0219169083151502179055509050507f7f8a0d38740843d0ee5a72fbb0d8eb7ba17e011706fc41ad190cbd825d158b588133868686604051610d4a959493929190611875565b60405180910390a150505050565b60015481565b600360003373ffffffffffffffffffffffffffffffffffffffff1673ffffffffffffffffffffffffffffffffffffffff16815260200190815260200160002060009054906101000a900460ff1615610deb576040517f08c379a0000000000000000000000000000000000000000000000000000000008152600401610de29061183a565b60405180910390fd5b6001600360003373ffffffffffffffffffffffffffffffffffffffff1673ffffffffffffffffffffffffffffffffffffffff16815260200190815260200160002060006101000a81548160ff0219169083151502179055507f54db7a5cb4735e1aac1f53db512d3390390bb6637bd30ad4bf9fc98667d9b9b933604051610e7291906116c3565b60405180910390a1565b6000806060806000806000808881526020019081526020016000206040518060a00160405290816000820160009054906101000a900473ffffffffffffffffffffffffffffffffffffffff1673ffffffffffffffffffffffffffffffffffffffff1673ffffffffffffffffffffffffffffffffffffffff16815260200160018201548152602001600282018054610f1290611a67565b80601f0160208091040260200160405190810160405280929190818152602001828054610f3e90611a67565b8015610f8b5780601f10610f6057610100808354040283529160200191610f8b565b820191906000526020600020905b815481529060010190602001808311610f6e57829003601f168201915b50505050508152602001600382018054610fa490611a67565b80601f0160208091040260200160405190810160405280929190818152602001828054610fd090611a67565b801561101d5780601f10610ff25761010080835404028352916020019161101d565b820191906000526020600020905b81548152906001019060200180831161100057829003601f168201915b505050505081526020016004820160009054906101000a900460ff161515151581525050905080600001518160200151826040015183606001518460800151955095509550955095505091939590929450565b6002602052816000526040600020818154811061108c57600080fd5b9060005260206000209060020201600091509150508060000160009054906101000a900473ffffffffffffffffffffffffffffffffffffffff16908060010154905082565b600060026000838152602001908152602001600020805490509050919050565b600360003373ffffffffffffffffffffffffffffffffffffffff1673ffffffffffffffffffffffffffffffffffffffff16815260200190815260200160002060009054906101000a900460ff1661117d576040517f08c379a0000000000000000000000000000000000000000000000000000000008152600401611174906117ba565b60405180910390fd5b4281116111bf576040517f08c379a00000000000000000000000000000000000000000000000000000000081526004016111b6906117da565b60405180910390fd5b6002600082815260200190815260200160002060405180604001604052803373ffffffffffffffffffffffffffffffffffffffff16815260200183815250908060018154018082558091505060019003906000526020600020906002020160009091909190915060008201518160000160006101000a81548173ffffffffffffffffffffffffffffffffffffffff021916908373ffffffffffffffffffffffffffffffffffffffff1602179055506020820151816001015550507fa1427e803e9aca2841703a3a635a759589b44bec46c98328fa34750a9906ac5833826040516112aa9291906116de565b60405180910390a150565b8280546112c190611a67565b90600052602060002090601f0160209004810192826112e3576000855561132a565b82601f106112fc57805160ff191683800117855561132a565b8280016001018555821561132a579182015b8281111561132957825182559160200191906001019061130e565b5b509050611337919061133b565b5090565b5b8082111561135457600081600090555060010161133c565b5090565b600061136b61136684611907565b6118d6565b90508281526020810184848401111561138357600080fd5b61138e848285611a25565b509392505050565b6000813590506113a581611b80565b92915050565b600082601f8301126113bc57600080fd5b81356113cc848260208601611358565b91505092915050565b6000813590506113e481611b97565b92915050565b6000602082840312156113fc57600080fd5b600061140a84828501611396565b91505092915050565b60006020828403121561142557600080fd5b6000611433848285016113d5565b91505092915050565b60008060006060848603121561145157600080fd5b600061145f868287016113d5565b935050602084013567ffffffffffffffff81111561147c57600080fd5b611488868287016113ab565b925050604084013567ffffffffffffffff8111156114a557600080fd5b6114b1868287016113ab565b9150509250925092565b600080604083850312156114ce57600080fd5b60006114dc858286016113d5565b92505060206114ed858286016113d5565b9150509250929050565b611500816119dd565b82525050565b61150f816119ef565b82525050565b600061152082611937565b61152a8185611942565b935061153a818560208601611a34565b61154381611b6f565b840191505092915050565b600061155b601683611942565b91507f55736572206973206e6f742072656769737465726564000000000000000000006000830152602082019050919050565b600061159b601f83611942565b91507f546573742064617465206d75737420626520696e2074686520667574757265006000830152602082019050919050565b60006115db601583611942565b91507f426f6f6b696e67206973206e6f742061637469766500000000000000000000006000830152602082019050919050565b600061161b602183611942565b91507f4f6e6c792074686520626f6f6b696e67206f776e65722063616e2063616e636560008301527f6c000000000000000000000000000000000000000000000000000000000000006020830152604082019050919050565b6000611681601a83611942565b91507f5573657220697320616c726561647920726567697374657265640000000000006000830152602082019050919050565b6116bd81611a1b565b82525050565b60006020820190506116d860008301846114f7565b92915050565b60006040820190506116f360008301856114f7565b61170060208301846116b4565b9392505050565b600060a08201905061171c60008301886114f7565b61172960208301876116b4565b818103604083015261173b8186611515565b9050818103606083015261174f8185611515565b905061175e6080830184611506565b9695505050505050565b600060608201905061177d60008301866114f7565b61178a60208301856116b4565b61179760408301846116b4565b949350505050565b60006020820190506117b46000830184611506565b92915050565b600060208201905081810360008301526117d38161154e565b9050919050565b600060208201905081810360008301526117f38161158e565b9050919050565b60006020820190508181036000830152611813816115ce565b9050919050565b600060208201905081810360008301526118338161160e565b9050919050565b6000602082019050818103600083015261185381611674565b9050919050565b600060208201905061186f60008301846116b4565b92915050565b600060a08201905061188a60008301886116b4565b61189760208301876114f7565b6118a460408301866116b4565b81810360608301526118b68185611515565b905081810360808301526118ca8184611515565b90509695505050505050565b6000604051905081810181811067ffffffffffffffff821117156118fd576118fc611b40565b5b8060405250919050565b600067ffffffffffffffff82111561192257611921611b40565b5b601f19601f8301169050602081019050919050565b600081519050919050565b600082825260208201905092915050565b600061195e82611a1b565b915061196983611a1b565b9250827fffffffffffffffffffffffffffffffffffffffffffffffffffffffffffffffff0382111561199e5761199d611ae2565b5b828201905092915050565b60006119b482611a1b565b91506119bf83611a1b565b9250828210156119d2576119d1611ae2565b5b828203905092915050565b60006119e8826119fb565b9050919050565b60008115159050919050565b600073ffffffffffffffffffffffffffffffffffffffff82169050919050565b6000819050919050565b82818337600083830152505050565b60005b83811015611a52578082015181840152602081019050611a37565b83811115611a61576000848401525b50505050565b60006002820490506001821680611a7f57607f821691505b60208210811415611a9357611a92611b11565b5b50919050565b6000611aa482611a1b565b91507fffffffffffffffffffffffffffffffffffffffffffffffffffffffffffffffff821415611ad757611ad6611ae2565b5b600182019050919050565b7f4e487b7100000000000000000000000000000000000000000000000000000000600052601160045260246000fd5b7f4e487b7100000000000000000000000000000000000000000000000000000000600052602260045260246000fd5b7f4e487b7100000000000000000000000000000000000000000000000000000000600052604160045260246000fd5b6000601f19601f8301169050919050565b611b89816119dd565b8114611b9457600080fd5b50565b611ba081611a1b565b8114611bab57600080fd5b5056fea2646970667358221220bd788d2c4d0fd22c6e5df3be75d6951cd22b42d534cad66706adaa9e57586af164736f6c63430008000033",
  "immutableReferences": {},
  "source": "// SPDX-License-Identifier: MIT\npragma solidity ^0.8.0;\n\ncontract DrivingTestBooking {\n    struct Booking {\n        address candidate;\n        uint256 testDate;\n        string location;\n        string venue;\n        bool isActive;\n    }\n\n    struct WaitlistEntry {\n        address candidate;\n        uint256 testDate;\n    }\n\n    mapping(uint256 => Booking) public bookings;\n    uint256 public nextBookingId;\n\n    mapping(uint256 => WaitlistEntry[]) public waitlists;\n\n    mapping(address => bool) public registeredUsers;\n\n    event UserRegistered(address user);\n    event BookingCreated(uint256 bookingId, address candidate, uint256 testDate, string location, string venue);\n    event BookingCancelled(uint256 bookingId);\n    event AddedToWaitlist(address candidate, uint256 testDate);\n    event MovedFromWaitlist(address candidate, uint256 bookingId, uint256 testDate);\n\n    modifier onlyRegistered() {\n        require(registeredUsers[msg.sender], \"User is not registered\");\n        _;\n    }\n\n    function registerUser() public {\n        require(!registeredUsers[msg.sender], \"User is already registered\");\n        registeredUsers[msg.sender] = true;\n        emit UserRegistered(msg.sender);\n    }\n\n    function createBooking(uint256 _testDate, string memory _location, string memory _venue) public onlyRegistered {\n        require(_testDate > block.timestamp, \"Test date must be in the future\");\n\n        uint256 bookingId = nextBookingId++;\n        bookings[bookingId] = Booking(msg.sender, _testDate, _location, _venue, true);\n\n        emit BookingCreated(bookingId, msg.sender, _testDate, _location, _venue);\n    }\n\n    function cancelBooking(uint256 _bookingId) public {\n        require(bookings[_bookingId].candidate == msg.sender, \"Only the booking owner can cancel\");\n        require(bookings[_bookingId].isActive, \"Booking is not active\");\n        require(registeredUsers[msg.sender], \"User is not registered\");\n\n        bookings[_bookingId].isActive = false;\n        emit BookingCancelled(_bookingId);\n\n        // Check if there's anyone on the waitlist for this date\n        uint256 testDate = bookings[_bookingId].testDate;\n        if (waitlists[testDate].length > 0) {\n            WaitlistEntry memory entry = waitlists[testDate][0];\n            bookings[_bookingId] = Booking(entry.candidate, testDate, bookings[_bookingId].location, bookings[_bookingId].venue, true);\n\n            // Remove the entry from the waitlist\n            for (uint i = 0; i < waitlists[testDate].length - 1; i++) {\n                waitlists[testDate][i] = waitlists[testDate][i + 1];\n            }\n            waitlists[testDate].pop();\n\n            emit MovedFromWaitlist(entry.candidate, _bookingId, testDate);\n        }\n    }\n\n    function joinWaitlist(uint256 _testDate) public onlyRegistered {\n        require(_testDate > block.timestamp, \"Test date must be in the future\");\n        waitlists[_testDate].push(WaitlistEntry(msg.sender, _testDate));\n        emit AddedToWaitlist(msg.sender, _testDate);\n    }\n\n    function getBooking(uint256 _bookingId) public view returns (address, uint256, string memory, string memory, bool) {\n        Booking memory booking = bookings[_bookingId];\n        return (booking.candidate, booking.testDate, booking.location, booking.venue, booking.isActive);\n    }\n\n    function getWaitlistLength(uint256 _testDate) public view returns (uint256) {\n        return waitlists[_testDate].length;\n    }\n}",
  "sourcePath": "/Users/yuqi/Desktop/MSE_Learn/907_final/for_907_final/project/contracts/DrivingTestBooking.sol",
  "compiler": {
    "name": "solc",
    "version": "0.8.0+commit.c7dfd78e.Emscripten.clang"
  },
  "schemaVersion": "3.4.16",
  "updatedAt": "2024-10-21T03:57:22.850Z",
  "devdoc": {
    "kind": "dev",
    "methods": {},
    "version": 1
  },
  "userdoc": {
    "kind": "user",
    "methods": {},
    "version": 1
  }
}