{
  "contractName": "DrivingTestBooking",
  "abi": [
    {
      "anonymous": false,
      "inputs": [
        {
          "indexed": false,
          "internalType": "address",
          "name": "candidate",
          "type": "address"
        },
        {
          "indexed": false,
          "internalType": "uint256",
          "name": "testDate",
          "type": "uint256"
        },
        {
          "indexed": false,
          "internalType": "string",
          "name": "preferredLocation",
          "type": "string"
        },
        {
          "indexed": false,
          "internalType": "string",
          "name": "preferredVenue",
          "type": "string"
        }
      ],
      "name": "AddedToWaitlist",
      "type": "event"
    },
    {
      "anonymous": false,
      "inputs": [
        {
          "indexed": false,
          "internalType": "uint256",
          "name": "bookingId",
          "type": "uint256"
        }
      ],
      "name": "BookingCancelled",
      "type": "event"
    },
    {
      "anonymous": false,
      "inputs": [
        {
          "indexed": false,
          "internalType": "uint256",
          "name": "bookingId",
          "type": "uint256"
        },
        {
          "indexed": false,
          "internalType": "address",
          "name": "candidate",
          "type": "address"
        },
        {
          "indexed": false,
          "internalType": "uint256",
          "name": "testDate",
          "type": "uint256"
        },
        {
          "indexed": false,
          "internalType": "string",
          "name": "location",
          "type": "string"
        },
        {
          "indexed": false,
          "internalType": "string",
          "name": "venue",
          "type": "string"
        }
      ],
      "name": "BookingCreated",
      "type": "event"
    },
    {
      "anonymous": false,
      "inputs": [
        {
          "indexed": false,
          "internalType": "uint256",
          "name": "date",
          "type": "uint256"
        },
        {
          "indexed": false,
          "internalType": "address",
          "name": "user",
          "type": "address"
        },
        {
          "indexed": false,
          "internalType": "string",
          "name": "location",
          "type": "string"
        },
        {
          "indexed": false,
          "internalType": "string",
          "name": "venue",
          "type": "string"
        }
      ],
      "name": "DebugWaitlistEntry",
      "type": "event"
    },
    {
      "anonymous": false,
      "inputs": [
        {
          "indexed": false,
          "internalType": "address",
          "name": "candidate",
          "type": "address"
        },
        {
          "indexed": false,
          "internalType": "uint256",
          "name": "bookingId",
          "type": "uint256"
        },
        {
          "indexed": false,
          "internalType": "uint256",
          "name": "testDate",
          "type": "uint256"
        },
        {
          "indexed": false,
          "internalType": "string",
          "name": "location",
          "type": "string"
        },
        {
          "indexed": false,
          "internalType": "string",
          "name": "venue",
          "type": "string"
        }
      ],
      "name": "MovedFromWaitlist",
      "type": "event"
    },
    {
      "anonymous": false,
      "inputs": [
        {
          "indexed": false,
          "internalType": "address",
          "name": "user",
          "type": "address"
        }
      ],
      "name": "UserRegistered",
      "type": "event"
    },
    {
      "anonymous": false,
      "inputs": [
        {
          "indexed": false,
          "internalType": "uint256",
          "name": "dateKey",
          "type": "uint256"
        },
        {
          "indexed": false,
          "internalType": "uint256",
          "name": "originalDate",
          "type": "uint256"
        },
        {
          "indexed": false,
          "internalType": "uint256",
          "name": "currentLength",
          "type": "uint256"
        }
      ],
      "name": "WaitlistOperationDebug",
      "type": "event"
    },
    {
      "inputs": [
        {
          "internalType": "uint256",
          "name": "",
          "type": "uint256"
        }
      ],
      "name": "bookings",
      "outputs": [
        {
          "internalType": "address",
          "name": "candidate",
          "type": "address"
        },
        {
          "internalType": "uint256",
          "name": "testDate",
          "type": "uint256"
        },
        {
          "internalType": "string",
          "name": "location",
          "type": "string"
        },
        {
          "internalType": "string",
          "name": "venue",
          "type": "string"
        },
        {
          "internalType": "bool",
          "name": "isActive",
          "type": "bool"
        }
      ],
      "stateMutability": "view",
      "type": "function",
      "constant": true
    },
    {
      "inputs": [],
      "name": "nextBookingId",
      "outputs": [
        {
          "internalType": "uint256",
          "name": "",
          "type": "uint256"
        }
      ],
      "stateMutability": "view",
      "type": "function",
      "constant": true
    },
    {
      "inputs": [
        {
          "internalType": "address",
          "name": "",
          "type": "address"
        }
      ],
      "name": "registeredUsers",
      "outputs": [
        {
          "internalType": "bool",
          "name": "",
          "type": "bool"
        }
      ],
      "stateMutability": "view",
      "type": "function",
      "constant": true
    },
    {
      "inputs": [
        {
          "internalType": "uint256",
          "name": "",
          "type": "uint256"
        },
        {
          "internalType": "uint256",
          "name": "",
          "type": "uint256"
        }
      ],
      "name": "waitlists",
      "outputs": [
        {
          "internalType": "address",
          "name": "candidate",
          "type": "address"
        },
        {
          "internalType": "uint256",
          "name": "testDate",
          "type": "uint256"
        },
        {
          "internalType": "string",
          "name": "preferredLocation",
          "type": "string"
        },
        {
          "internalType": "string",
          "name": "preferredVenue",
          "type": "string"
        }
      ],
      "stateMutability": "view",
      "type": "function",
      "constant": true
    },
    {
      "inputs": [],
      "name": "registerUser",
      "outputs": [],
      "stateMutability": "nonpayable",
      "type": "function"
    },
    {
      "inputs": [
        {
          "internalType": "uint256",
          "name": "_testDate",
          "type": "uint256"
        },
        {
          "internalType": "string",
          "name": "_location",
          "type": "string"
        },
        {
          "internalType": "string",
          "name": "_venue",
          "type": "string"
        }
      ],
      "name": "createBooking",
      "outputs": [],
      "stateMutability": "nonpayable",
      "type": "function"
    },
    {
      "inputs": [
        {
          "internalType": "uint256",
          "name": "_bookingId",
          "type": "uint256"
        }
      ],
      "name": "cancelBooking",
      "outputs": [],
      "stateMutability": "nonpayable",
      "type": "function"
    },
    {
      "inputs": [
        {
          "internalType": "uint256",
          "name": "_bookingId",
          "type": "uint256"
        }
      ],
      "name": "getBooking",
      "outputs": [
        {
          "internalType": "address",
          "name": "",
          "type": "address"
        },
        {
          "internalType": "uint256",
          "name": "",
          "type": "uint256"
        },
        {
          "internalType": "string",
          "name": "",
          "type": "string"
        },
        {
          "internalType": "string",
          "name": "",
          "type": "string"
        },
        {
          "internalType": "bool",
          "name": "",
          "type": "bool"
        }
      ],
      "stateMutability": "view",
      "type": "function",
      "constant": true
    },
    {
      "inputs": [
        {
          "internalType": "uint256",
          "name": "_testDate",
          "type": "uint256"
        }
      ],
      "name": "getWaitlistLength",
      "outputs": [
        {
          "internalType": "uint256",
          "name": "",
          "type": "uint256"
        }
      ],
      "stateMutability": "view",
      "type": "function",
      "constant": true
    },
    {
      "inputs": [
        {
          "internalType": "address",
          "name": "_user",
          "type": "address"
        }
      ],
      "name": "getUserWaitlistEntries",
      "outputs": [
        {
          "components": [
            {
              "internalType": "address",
              "name": "candidate",
              "type": "address"
            },
            {
              "internalType": "uint256",
              "name": "testDate",
              "type": "uint256"
            },
            {
              "internalType": "string",
              "name": "preferredLocation",
              "type": "string"
            },
            {
              "internalType": "string",
              "name": "preferredVenue",
              "type": "string"
            }
          ],
          "internalType": "struct DrivingTestBooking.WaitlistEntry[]",
          "name": "",
          "type": "tuple[]"
        }
      ],
      "stateMutability": "view",
      "type": "function",
      "constant": true
    },
    {
      "inputs": [
        {
          "internalType": "uint256",
          "name": "_testDate",
          "type": "uint256"
        },
        {
          "internalType": "string",
          "name": "_preferredLocation",
          "type": "string"
        },
        {
          "internalType": "string",
          "name": "_preferredVenue",
          "type": "string"
        }
      ],
      "name": "joinWaitlist",
      "outputs": [],
      "stateMutability": "nonpayable",
      "type": "function"
    }
  ],
  "bytecode": "0x608060405234801561001057600080fd5b50612f9e806100206000396000f3fe608060405234801561001057600080fd5b50600436106100a95760003560e01c80634d3820eb116100715780634d3820eb146101685780636a5c841a146101725780639218edba146101a6578063c318143b146101d9578063f01c164d14610209578063f859e4e114610239576100a9565b80630dca825e146100ae5780630e50cee5146100ca5780631dab301e146100fa5780631dc64ab51461012e57806326f20c791461014a575b600080fd5b6100c860048036038101906100c391906123e6565b610255565b005b6100e460048036038101906100df91906123bd565b610d28565b6040516100f19190612a18565b60405180910390f35b610114600480360381019061010f91906123e6565b610d48565b604051610125959493929190612934565b60405180910390f35b6101486004803603810190610143919061240f565b610ebb565b005b6101526110e9565b60405161015f9190612b33565b60405180910390f35b6101706110ef565b005b61018c600480360381019061018791906123e6565b61120d565b60405161019d959493929190612934565b60405180910390f35b6101c060048036038101906101bb919061248e565b611401565b6040516101d094939291906128e1565b60405180910390f35b6101f360048036038101906101ee91906123e6565b61157e565b6040516102009190612b33565b60405180910390f35b610223600480360381019061021e91906123bd565b61159e565b60405161023091906129f6565b60405180910390f35b610253600480360381019061024e919061240f565b611abb565b005b600360003373ffffffffffffffffffffffffffffffffffffffff1673ffffffffffffffffffffffffffffffffffffffff16815260200190815260200160002060009054906101000a900460ff166102e1576040517f08c379a00000000000000000000000000000000000000000000000000000000081526004016102d890612a33565b60405180910390fd5b3373ffffffffffffffffffffffffffffffffffffffff1660008083815260200190815260200160002060000160009054906101000a900473ffffffffffffffffffffffffffffffffffffffff1673ffffffffffffffffffffffffffffffffffffffff1614610384576040517f08c379a000000000000000000000000000000000000000000000000000000000815260040161037b90612ab3565b60405180910390fd5b60008082815260200190815260200160002060040160009054906101000a900460ff166103e6576040517f08c379a00000000000000000000000000000000000000000000000000000000081526004016103dd90612a73565b60405180910390fd5b600080600083815260200190815260200160002060040160006101000a81548160ff0219169083151502179055507ff774c001cb52a3566b767ed6e37c92706acb2b80a3ff6049e2849cd62725d085816040516104439190612b33565b60405180910390a160008060008381526020019081526020016000206001015490506000806000848152602001908152602001600020600201805461048790612dc1565b80601f01602080910402602001604051908101604052809291908181526020018280546104b390612dc1565b80156105005780601f106104d557610100808354040283529160200191610500565b820191906000526020600020905b8154815290600101906020018083116104e357829003601f168201915b505050505090506000806000858152602001908152602001600020600301805461052990612dc1565b80601f016020809104026020016040519081016040528092919081815260200182805461055590612dc1565b80156105a25780601f10610577576101008083540402835291602001916105a2565b820191906000526020600020905b81548152906001019060200180831161058557829003601f168201915b50505050509050600060026000858152602001908152602001600020805490501115610d215760005b60026000858152602001908152602001600020805490508110156109df576000600260008681526020019081526020016000208281548110610636577f4e487b7100000000000000000000000000000000000000000000000000000000600052603260045260246000fd5b90600052602060002090600402016040518060800160405290816000820160009054906101000a900473ffffffffffffffffffffffffffffffffffffffff1673ffffffffffffffffffffffffffffffffffffffff1673ffffffffffffffffffffffffffffffffffffffff168152602001600182015481526020016002820180546106bf90612dc1565b80601f01602080910402602001604051908101604052809291908181526020018280546106eb90612dc1565b80156107385780601f1061070d57610100808354040283529160200191610738565b820191906000526020600020905b81548152906001019060200180831161071b57829003601f168201915b5050505050815260200160038201805461075190612dc1565b80601f016020809104026020016040519081016040528092919081815260200182805461077d90612dc1565b80156107ca5780601f1061079f576101008083540402835291602001916107ca565b820191906000526020600020905b8154815290600101906020018083116107ad57829003601f168201915b505050505081525050905060006040518060200160405280600081525080519060200120826040015180519060200120148061081757508480519060200120826040015180519060200120145b905060006040518060200160405280600081525080519060200120836060015180519060200120148061085b57508480519060200120836060015180519060200120145b90508180156108675750805b156109c9576040518060a00160405280846000015173ffffffffffffffffffffffffffffffffffffffff168152602001888152602001878152602001868152602001600115158152506000808a815260200190815260200160002060008201518160000160006101000a81548173ffffffffffffffffffffffffffffffffffffffff021916908373ffffffffffffffffffffffffffffffffffffffff16021790555060208201518160010155604082015181600201908051906020019061092f92919061217d565b50606082015181600301908051906020019061094c92919061217d565b5060808201518160040160006101000a81548160ff02191690831515021790555090505061097a8785611eba565b7f4df6aaa1b12a44a29af9e6e38656cf4978e31d3a53b28e490de7d85e802e17dc8360000151898989896040516109b5959493929190612995565b60405180910390a150505050505050610d25565b50505080806109d790612df3565b9150506105cb565b50600060026000858152602001908152602001600020600081548110610a2e577f4e487b7100000000000000000000000000000000000000000000000000000000600052603260045260246000fd5b90600052602060002090600402016040518060800160405290816000820160009054906101000a900473ffffffffffffffffffffffffffffffffffffffff1673ffffffffffffffffffffffffffffffffffffffff1673ffffffffffffffffffffffffffffffffffffffff16815260200160018201548152602001600282018054610ab790612dc1565b80601f0160208091040260200160405190810160405280929190818152602001828054610ae390612dc1565b8015610b305780601f10610b0557610100808354040283529160200191610b30565b820191906000526020600020905b815481529060010190602001808311610b1357829003601f168201915b50505050508152602001600382018054610b4990612dc1565b80601f0160208091040260200160405190810160405280929190818152602001828054610b7590612dc1565b8015610bc25780601f10610b9757610100808354040283529160200191610bc2565b820191906000526020600020905b815481529060010190602001808311610ba557829003601f168201915b50505050508152505090506040518060a00160405280826000015173ffffffffffffffffffffffffffffffffffffffff1681526020018581526020018481526020018381526020016001151581525060008087815260200190815260200160002060008201518160000160006101000a81548173ffffffffffffffffffffffffffffffffffffffff021916908373ffffffffffffffffffffffffffffffffffffffff160217905550602082015181600101556040820151816002019080519060200190610c9092919061217d565b506060820151816003019080519060200190610cad92919061217d565b5060808201518160040160006101000a81548160ff021916908315150217905550905050610cdc846000611eba565b7f4df6aaa1b12a44a29af9e6e38656cf4978e31d3a53b28e490de7d85e802e17dc816000015186868686604051610d17959493929190612995565b60405180910390a1505b5050505b50565b60036020528060005260406000206000915054906101000a900460ff1681565b60006020528060005260406000206000915090508060000160009054906101000a900473ffffffffffffffffffffffffffffffffffffffff1690806001015490806002018054610d9790612dc1565b80601f0160208091040260200160405190810160405280929190818152602001828054610dc390612dc1565b8015610e105780601f10610de557610100808354040283529160200191610e10565b820191906000526020600020905b815481529060010190602001808311610df357829003601f168201915b505050505090806003018054610e2590612dc1565b80601f0160208091040260200160405190810160405280929190818152602001828054610e5190612dc1565b8015610e9e5780601f10610e7357610100808354040283529160200191610e9e565b820191906000526020600020905b815481529060010190602001808311610e8157829003601f168201915b5050505050908060040160009054906101000a900460ff16905085565b600360003373ffffffffffffffffffffffffffffffffffffffff1673ffffffffffffffffffffffffffffffffffffffff16815260200190815260200160002060009054906101000a900460ff16610f47576040517f08c379a0000000000000000000000000000000000000000000000000000000008152600401610f3e90612a33565b60405180910390fd5b428311610f89576040517f08c379a0000000000000000000000000000000000000000000000000000000008152600401610f8090612a53565b60405180910390fd5b600060016000815480929190610f9e90612df3565b9190505590506040518060a001604052803373ffffffffffffffffffffffffffffffffffffffff1681526020018581526020018481526020018381526020016001151581525060008083815260200190815260200160002060008201518160000160006101000a81548173ffffffffffffffffffffffffffffffffffffffff021916908373ffffffffffffffffffffffffffffffffffffffff16021790555060208201518160010155604082015181600201908051906020019061106392919061217d565b50606082015181600301908051906020019061108092919061217d565b5060808201518160040160006101000a81548160ff0219169083151502179055509050507f7f8a0d38740843d0ee5a72fbb0d8eb7ba17e011706fc41ad190cbd825d158b5881338686866040516110db959493929190612b4e565b60405180910390a150505050565b60015481565b600360003373ffffffffffffffffffffffffffffffffffffffff1673ffffffffffffffffffffffffffffffffffffffff16815260200190815260200160002060009054906101000a900460ff161561117c576040517f08c379a000000000000000000000000000000000000000000000000000000000815260040161117390612af3565b60405180910390fd5b6001600360003373ffffffffffffffffffffffffffffffffffffffff1673ffffffffffffffffffffffffffffffffffffffff16815260200190815260200160002060006101000a81548160ff0219169083151502179055507f54db7a5cb4735e1aac1f53db512d3390390bb6637bd30ad4bf9fc98667d9b9b93360405161120391906128c6565b60405180910390a1565b6000806060806000806000808881526020019081526020016000206040518060a00160405290816000820160009054906101000a900473ffffffffffffffffffffffffffffffffffffffff1673ffffffffffffffffffffffffffffffffffffffff1673ffffffffffffffffffffffffffffffffffffffff168152602001600182015481526020016002820180546112a390612dc1565b80601f01602080910402602001604051908101604052809291908181526020018280546112cf90612dc1565b801561131c5780601f106112f15761010080835404028352916020019161131c565b820191906000526020600020905b8154815290600101906020018083116112ff57829003601f168201915b5050505050815260200160038201805461133590612dc1565b80601f016020809104026020016040519081016040528092919081815260200182805461136190612dc1565b80156113ae5780601f10611383576101008083540402835291602001916113ae565b820191906000526020600020905b81548152906001019060200180831161139157829003601f168201915b505050505081526020016004820160009054906101000a900460ff161515151581525050905080600001518160200151826040015183606001518460800151955095509550955095505091939590929450565b6002602052816000526040600020818154811061141d57600080fd5b9060005260206000209060040201600091509150508060000160009054906101000a900473ffffffffffffffffffffffffffffffffffffffff169080600101549080600201805461146d90612dc1565b80601f016020809104026020016040519081016040528092919081815260200182805461149990612dc1565b80156114e65780601f106114bb576101008083540402835291602001916114e6565b820191906000526020600020905b8154815290600101906020018083116114c957829003601f168201915b5050505050908060030180546114fb90612dc1565b80601f016020809104026020016040519081016040528092919081815260200182805461152790612dc1565b80156115745780601f1061154957610100808354040283529160200191611574565b820191906000526020600020905b81548152906001019060200180831161155757829003601f168201915b5050505050905084565b600060026000838152602001908152602001600020805490509050919050565b606060008062015180426115b29190612e3c565b426115bd9190612d03565b905060006303c26700826115d19190612cad565b905060008290505b8181116116ea5760005b60026000838152602001908152602001600020805490508110156116d3578673ffffffffffffffffffffffffffffffffffffffff16600260008481526020019081526020016000208281548110611663577f4e487b7100000000000000000000000000000000000000000000000000000000600052603260045260246000fd5b906000526020600020906004020160000160009054906101000a900473ffffffffffffffffffffffffffffffffffffffff1673ffffffffffffffffffffffffffffffffffffffff1614156116c05784806116bc90612df3565b9550505b80806116cb90612df3565b9150506115e3565b5062015180816116e39190612cad565b90506115d9565b5060008367ffffffffffffffff81111561172d577f4e487b7100000000000000000000000000000000000000000000000000000000600052604160045260246000fd5b60405190808252806020026020018201604052801561176657816020015b611753612203565b81526020019060019003908161174b5790505b5090506000808490505b838111611aad5760005b6002600083815260200190815260200160002080549050811015611a96578873ffffffffffffffffffffffffffffffffffffffff166002600084815260200190815260200160002082815481106117fa577f4e487b7100000000000000000000000000000000000000000000000000000000600052603260045260246000fd5b906000526020600020906004020160000160009054906101000a900473ffffffffffffffffffffffffffffffffffffffff1673ffffffffffffffffffffffffffffffffffffffff161415611a8357600260008381526020019081526020016000208181548110611893577f4e487b7100000000000000000000000000000000000000000000000000000000600052603260045260246000fd5b90600052602060002090600402016040518060800160405290816000820160009054906101000a900473ffffffffffffffffffffffffffffffffffffffff1673ffffffffffffffffffffffffffffffffffffffff1673ffffffffffffffffffffffffffffffffffffffff1681526020016001820154815260200160028201805461191c90612dc1565b80601f016020809104026020016040519081016040528092919081815260200182805461194890612dc1565b80156119955780601f1061196a57610100808354040283529160200191611995565b820191906000526020600020905b81548152906001019060200180831161197857829003601f168201915b505050505081526020016003820180546119ae90612dc1565b80601f01602080910402602001604051908101604052809291908181526020018280546119da90612dc1565b8015611a275780601f106119fc57610100808354040283529160200191611a27565b820191906000526020600020905b815481529060010190602001808311611a0a57829003601f168201915b505050505081525050848481518110611a69577f4e487b7100000000000000000000000000000000000000000000000000000000600052603260045260246000fd5b60200260200101819052508280611a7f90612df3565b9350505b8080611a8e90612df3565b91505061177a565b506201518081611aa69190612cad565b9050611770565b508195505050505050919050565b600360003373ffffffffffffffffffffffffffffffffffffffff1673ffffffffffffffffffffffffffffffffffffffff16815260200190815260200160002060009054906101000a900460ff16611b47576040517f08c379a0000000000000000000000000000000000000000000000000000000008152600401611b3e90612a33565b60405180910390fd5b428311611b89576040517f08c379a0000000000000000000000000000000000000000000000000000000008152600401611b8090612a53565b60405180910390fd5b60006201518084611b9a9190612e3c565b84611ba59190612d03565b90506064600260008381526020019081526020016000208054905010611c00576040517f08c379a0000000000000000000000000000000000000000000000000000000008152600401611bf790612ad3565b60405180910390fd5b7f3de7a6ad29fe492cd066c2982b10aeff1c719d84cb30652a01cc0c558e49399681856002600085815260200190815260200160002080549050604051611c4993929190612baf565b60405180910390a160005b6002600083815260200190815260200160002080549050811015611d70573373ffffffffffffffffffffffffffffffffffffffff16600260008481526020019081526020016000208281548110611cd4577f4e487b7100000000000000000000000000000000000000000000000000000000600052603260045260246000fd5b906000526020600020906004020160000160009054906101000a900473ffffffffffffffffffffffffffffffffffffffff1673ffffffffffffffffffffffffffffffffffffffff161415611d5d576040517f08c379a0000000000000000000000000000000000000000000000000000000008152600401611d5490612b13565b60405180910390fd5b8080611d6890612df3565b915050611c54565b50600060405180608001604052803373ffffffffffffffffffffffffffffffffffffffff1681526020018681526020018581526020018481525090506002600083815260200190815260200160002081908060018154018082558091505060019003906000526020600020906004020160009091909190915060008201518160000160006101000a81548173ffffffffffffffffffffffffffffffffffffffff021916908373ffffffffffffffffffffffffffffffffffffffff160217905550602082015181600101556040820151816002019080519060200190611e5692919061217d565b506060820151816003019080519060200190611e7392919061217d565b5050507f59cef0cc0580ed1d2de0771700ca28a36f3ce980a499e313521099c2f67f078833868686604051611eab94939291906128e1565b60405180910390a15050505050565b60026000838152602001908152602001600020805490508110611f12576040517f08c379a0000000000000000000000000000000000000000000000000000000008152600401611f0990612a93565b60405180910390fd5b60008190505b60016002600085815260200190815260200160002080549050611f3b9190612d03565b8110156120c75760026000848152602001908152602001600020600182611f629190612cad565b81548110611f99577f4e487b7100000000000000000000000000000000000000000000000000000000600052603260045260246000fd5b9060005260206000209060040201600260008581526020019081526020016000208281548110611ff2577f4e487b7100000000000000000000000000000000000000000000000000000000600052603260045260246000fd5b90600052602060002090600402016000820160009054906101000a900473ffffffffffffffffffffffffffffffffffffffff168160000160006101000a81548173ffffffffffffffffffffffffffffffffffffffff021916908373ffffffffffffffffffffffffffffffffffffffff16021790555060018201548160010155600282018160020190805461208590612dc1565b612090929190612241565b5060038201816003019080546120a590612dc1565b6120b0929190612241565b5090505080806120bf90612df3565b915050611f18565b5060026000838152602001908152602001600020805480612111577f4e487b7100000000000000000000000000000000000000000000000000000000600052603160045260246000fd5b6001900381819060005260206000209060040201600080820160006101000a81549073ffffffffffffffffffffffffffffffffffffffff0219169055600182016000905560028201600061216591906122ce565b60038201600061217591906122ce565b505090555050565b82805461218990612dc1565b90600052602060002090601f0160209004810192826121ab57600085556121f2565b82601f106121c457805160ff19168380011785556121f2565b828001600101855582156121f2579182015b828111156121f15782518255916020019190600101906121d6565b5b5090506121ff919061230e565b5090565b6040518060800160405280600073ffffffffffffffffffffffffffffffffffffffff1681526020016000815260200160608152602001606081525090565b82805461224d90612dc1565b90600052602060002090601f01602090048101928261226f57600085556122bd565b82601f1061228057805485556122bd565b828001600101855582156122bd57600052602060002091601f016020900482015b828111156122bc5782548255916001019190600101906122a1565b5b5090506122ca919061230e565b5090565b5080546122da90612dc1565b6000825580601f106122ec575061230b565b601f01602090049060005260206000209081019061230a919061230e565b5b50565b5b8082111561232757600081600090555060010161230f565b5090565b600061233e61233984612c17565b612be6565b90508281526020810184848401111561235657600080fd5b612361848285612d7f565b509392505050565b60008135905061237881612f3a565b92915050565b600082601f83011261238f57600080fd5b813561239f84826020860161232b565b91505092915050565b6000813590506123b781612f51565b92915050565b6000602082840312156123cf57600080fd5b60006123dd84828501612369565b91505092915050565b6000602082840312156123f857600080fd5b6000612406848285016123a8565b91505092915050565b60008060006060848603121561242457600080fd5b6000612432868287016123a8565b935050602084013567ffffffffffffffff81111561244f57600080fd5b61245b8682870161237e565b925050604084013567ffffffffffffffff81111561247857600080fd5b6124848682870161237e565b9150509250925092565b600080604083850312156124a157600080fd5b60006124af858286016123a8565b92505060206124c0858286016123a8565b9150509250929050565b60006124d6838361283e565b905092915050565b6124e781612d37565b82525050565b6124f681612d37565b82525050565b600061250782612c57565b6125118185612c7a565b93508360208202850161252385612c47565b8060005b8581101561255f578484038952815161254085826124ca565b945061254b83612c6d565b925060208a01995050600181019050612527565b50829750879550505050505092915050565b61257a81612d49565b82525050565b600061258b82612c62565b6125958185612c8b565b93506125a5818560208601612d8e565b6125ae81612f29565b840191505092915050565b60006125c482612c62565b6125ce8185612c9c565b93506125de818560208601612d8e565b6125e781612f29565b840191505092915050565b60006125ff601683612c9c565b91507f55736572206973206e6f742072656769737465726564000000000000000000006000830152602082019050919050565b600061263f601f83612c9c565b91507f546573742064617465206d75737420626520696e2074686520667574757265006000830152602082019050919050565b600061267f601583612c9c565b91507f426f6f6b696e67206973206e6f742061637469766500000000000000000000006000830152602082019050919050565b60006126bf601383612c9c565b91507f496e646578206f7574206f6620626f756e6473000000000000000000000000006000830152602082019050919050565b60006126ff602183612c9c565b91507f4f6e6c792074686520626f6f6b696e67206f776e65722063616e2063616e636560008301527f6c000000000000000000000000000000000000000000000000000000000000006020830152604082019050919050565b6000612765601e83612c9c565b91507f576169746c69737420666f72207468697320646174652069732066756c6c00006000830152602082019050919050565b60006127a5601a83612c9c565b91507f5573657220697320616c726561647920726567697374657265640000000000006000830152602082019050919050565b60006127e5602183612c9c565b91507f416c7265616479206f6e20776169746c69737420666f7220746869732064617460008301527f65000000000000000000000000000000000000000000000000000000000000006020830152604082019050919050565b600060808301600083015161285660008601826124de565b50602083015161286960208601826128a8565b50604083015184820360408601526128818282612580565b9150506060830151848203606086015261289b8282612580565b9150508091505092915050565b6128b181612d75565b82525050565b6128c081612d75565b82525050565b60006020820190506128db60008301846124ed565b92915050565b60006080820190506128f660008301876124ed565b61290360208301866128b7565b818103604083015261291581856125b9565b9050818103606083015261292981846125b9565b905095945050505050565b600060a08201905061294960008301886124ed565b61295660208301876128b7565b818103604083015261296881866125b9565b9050818103606083015261297c81856125b9565b905061298b6080830184612571565b9695505050505050565b600060a0820190506129aa60008301886124ed565b6129b760208301876128b7565b6129c460408301866128b7565b81810360608301526129d681856125b9565b905081810360808301526129ea81846125b9565b90509695505050505050565b60006020820190508181036000830152612a1081846124fc565b905092915050565b6000602082019050612a2d6000830184612571565b92915050565b60006020820190508181036000830152612a4c816125f2565b9050919050565b60006020820190508181036000830152612a6c81612632565b9050919050565b60006020820190508181036000830152612a8c81612672565b9050919050565b60006020820190508181036000830152612aac816126b2565b9050919050565b60006020820190508181036000830152612acc816126f2565b9050919050565b60006020820190508181036000830152612aec81612758565b9050919050565b60006020820190508181036000830152612b0c81612798565b9050919050565b60006020820190508181036000830152612b2c816127d8565b9050919050565b6000602082019050612b4860008301846128b7565b92915050565b600060a082019050612b6360008301886128b7565b612b7060208301876124ed565b612b7d60408301866128b7565b8181036060830152612b8f81856125b9565b90508181036080830152612ba381846125b9565b90509695505050505050565b6000606082019050612bc460008301866128b7565b612bd160208301856128b7565b612bde60408301846128b7565b949350505050565b6000604051905081810181811067ffffffffffffffff82111715612c0d57612c0c612efa565b5b8060405250919050565b600067ffffffffffffffff821115612c3257612c31612efa565b5b601f19601f8301169050602081019050919050565b6000819050602082019050919050565b600081519050919050565b600081519050919050565b6000602082019050919050565b600082825260208201905092915050565b600082825260208201905092915050565b600082825260208201905092915050565b6000612cb882612d75565b9150612cc383612d75565b9250827fffffffffffffffffffffffffffffffffffffffffffffffffffffffffffffffff03821115612cf857612cf7612e6d565b5b828201905092915050565b6000612d0e82612d75565b9150612d1983612d75565b925082821015612d2c57612d2b612e6d565b5b828203905092915050565b6000612d4282612d55565b9050919050565b60008115159050919050565b600073ffffffffffffffffffffffffffffffffffffffff82169050919050565b6000819050919050565b82818337600083830152505050565b60005b83811015612dac578082015181840152602081019050612d91565b83811115612dbb576000848401525b50505050565b60006002820490506001821680612dd957607f821691505b60208210811415612ded57612dec612ecb565b5b50919050565b6000612dfe82612d75565b91507fffffffffffffffffffffffffffffffffffffffffffffffffffffffffffffffff821415612e3157612e30612e6d565b5b600182019050919050565b6000612e4782612d75565b9150612e5283612d75565b925082612e6257612e61612e9c565b5b828206905092915050565b7f4e487b7100000000000000000000000000000000000000000000000000000000600052601160045260246000fd5b7f4e487b7100000000000000000000000000000000000000000000000000000000600052601260045260246000fd5b7f4e487b7100000000000000000000000000000000000000000000000000000000600052602260045260246000fd5b7f4e487b7100000000000000000000000000000000000000000000000000000000600052604160045260246000fd5b6000601f19601f8301169050919050565b612f4381612d37565b8114612f4e57600080fd5b50565b612f5a81612d75565b8114612f6557600080fd5b5056fea26469706673582212207c92ac800baced0016c6a50db11dd174e1b88669e924d345fef5fb4de3847f3c64736f6c63430008000033",
  "immutableReferences": {},
  "source": "// SPDX-License-Identifier: MIT\npragma solidity ^0.8.0;\n\ncontract DrivingTestBooking {\n    struct Booking {\n        address candidate;\n        uint256 testDate;\n        string location;\n        string venue;\n        bool isActive;\n    }\n\n    struct WaitlistEntry {\n        address candidate;\n        uint256 testDate;\n        string preferredLocation;\n        string preferredVenue;\n    }\n\n    mapping(uint256 => Booking) public bookings;\n    uint256 public nextBookingId;\n\n    //mapping(uint256 => WaitlistEntry[]) public waitlists;\n    mapping(uint256 => WaitlistEntry[]) public waitlists;\n\n\n\n    mapping(address => bool) public registeredUsers;\n\n    event UserRegistered(address user);\n    event BookingCreated(uint256 bookingId, address candidate, uint256 testDate, string location, string venue);\n    event BookingCancelled(uint256 bookingId);\n    event AddedToWaitlist(address candidate, uint256 testDate, string preferredLocation, string preferredVenue);\n    event MovedFromWaitlist(address candidate, uint256 bookingId, uint256 testDate, string location, string venue);\n    event DebugWaitlistEntry(uint256 date, address user, string location, string venue);\n    event WaitlistOperationDebug(uint256 dateKey, uint256 originalDate, uint256 currentLength);\n\n\n\n    modifier onlyRegistered() {\n        require(registeredUsers[msg.sender], \"User is not registered\");\n        _;\n    }\n\n    function registerUser() public {\n        require(!registeredUsers[msg.sender], \"User is already registered\");\n        registeredUsers[msg.sender] = true;\n        emit UserRegistered(msg.sender);\n    }\n\n    function createBooking(uint256 _testDate, string memory _location, string memory _venue) public onlyRegistered {\n        require(_testDate > block.timestamp, \"Test date must be in the future\");\n\n        uint256 bookingId = nextBookingId++;\n        bookings[bookingId] = Booking(msg.sender, _testDate, _location, _venue, true);\n\n        emit BookingCreated(bookingId, msg.sender, _testDate, _location, _venue);\n    }\n\n    function cancelBooking(uint256 _bookingId) public onlyRegistered {\n        require(bookings[_bookingId].candidate == msg.sender, \"Only the booking owner can cancel\");\n        require(bookings[_bookingId].isActive, \"Booking is not active\");\n        \n        bookings[_bookingId].isActive = false;\n        emit BookingCancelled(_bookingId);\n        \n        uint256 testDate = bookings[_bookingId].testDate;\n        string memory location = bookings[_bookingId].location;\n        string memory venue = bookings[_bookingId].venue;\n        \n        if (waitlists[testDate].length > 0) {\n            for (uint i = 0; i < waitlists[testDate].length; i++) {\n                WaitlistEntry memory entry = waitlists[testDate][i];\n                bool matchLocation = keccak256(bytes(entry.preferredLocation)) == keccak256(bytes(\"\")) || \n                                    keccak256(bytes(entry.preferredLocation)) == keccak256(bytes(location));\n                bool matchVenue = keccak256(bytes(entry.preferredVenue)) == keccak256(bytes(\"\")) || \n                                keccak256(bytes(entry.preferredVenue)) == keccak256(bytes(venue));\n                \n                if (matchLocation && matchVenue) {\n                    bookings[_bookingId] = Booking(entry.candidate, testDate, location, venue, true);\n                    removeFromWaitlist(testDate, i);\n                    emit MovedFromWaitlist(entry.candidate, _bookingId, testDate, location, venue);\n                    return;\n                }\n            }\n            \n            // If no preferred match found, assign to the first person in the waitlist\n            WaitlistEntry memory firstEntry = waitlists[testDate][0];\n            bookings[_bookingId] = Booking(firstEntry.candidate, testDate, location, venue, true);\n            removeFromWaitlist(testDate, 0);\n            emit MovedFromWaitlist(firstEntry.candidate, _bookingId, testDate, location, venue);\n        }\n    }\n\n    function getBooking(uint256 _bookingId) public view returns (address, uint256, string memory, string memory, bool) {\n        Booking memory booking = bookings[_bookingId];\n        return (booking.candidate, booking.testDate, booking.location, booking.venue, booking.isActive);\n    }\n\n    function getWaitlistLength(uint256 _testDate) public view returns (uint256) {\n        return waitlists[_testDate].length;\n    }\n\n    function removeFromWaitlist(uint256 _testDate, uint256 _index) internal {\n        require(_index < waitlists[_testDate].length, \"Index out of bounds\");\n        for (uint i = _index; i < waitlists[_testDate].length - 1; i++) {\n            waitlists[_testDate][i] = waitlists[_testDate][i + 1];\n        }\n        waitlists[_testDate].pop();\n    }\n\n    function getUserWaitlistEntries(address _user) public view returns (WaitlistEntry[] memory) {\n        // \n        uint256 totalEntries = 0;\n        uint256 startDate = block.timestamp - (block.timestamp % 86400); // \n        uint256 endDate = startDate + (730 days); // \n        \n        for (uint256 date = startDate; date <= endDate; date += 86400) {\n            for (uint i = 0; i < waitlists[date].length; i++) {\n                if (waitlists[date][i].candidate == _user) {\n                    totalEntries++;\n                }\n            }\n        }\n        \n        // \n        WaitlistEntry[] memory result = new WaitlistEntry[](totalEntries);\n        uint256 resultIndex = 0;\n        \n        // \n        for (uint256 date = startDate; date <= endDate; date += 86400) {\n            for (uint i = 0; i < waitlists[date].length; i++) {\n                if (waitlists[date][i].candidate == _user) {\n                    result[resultIndex] = waitlists[date][i];\n                    resultIndex++;\n                }\n            }\n        }\n        \n        return result;\n    }\n\n    function joinWaitlist(uint256 _testDate, string memory _preferredLocation, string memory _preferredVenue) public onlyRegistered {\n        require(_testDate > block.timestamp, \"Test date must be in the future\");\n        \n        // \n        uint256 dateKey = _testDate - (_testDate % 86400);\n        \n        // \n        require(waitlists[dateKey].length < 100, \"Waitlist for this date is full\"); // \n        \n        // debug\n        emit WaitlistOperationDebug(dateKey, _testDate, waitlists[dateKey].length);\n        \n        // \n        for(uint i = 0; i < waitlists[dateKey].length; i++) {\n            require(waitlists[dateKey][i].candidate != msg.sender, \"Already on waitlist for this date\");\n        }\n        \n        // \n        WaitlistEntry memory newEntry = WaitlistEntry({\n            candidate: msg.sender,\n            testDate: _testDate,\n            preferredLocation: _preferredLocation,\n            preferredVenue: _preferredVenue\n        });\n        \n        // \n        waitlists[dateKey].push(newEntry);\n        \n        // \n        emit AddedToWaitlist(msg.sender, _testDate, _preferredLocation, _preferredVenue);\n    }\n}",
  "sourcePath": "/Users/yuqi/Desktop/MSE_Learn/907_final/for_907_final/project/contracts/DrivingTestBooking.sol",
  "compiler": {
    "name": "solc",
    "version": "0.8.0+commit.c7dfd78e.Emscripten.clang"
  },
  "schemaVersion": "3.4.16",
  "updatedAt": "2024-10-21T23:21:43.422Z",
  "networkType": "ethereum",
  "devdoc": {
    "kind": "dev",
    "methods": {},
    "version": 1
  },
  "userdoc": {
    "kind": "user",
    "methods": {},
    "version": 1
  }
}