{
  "contractName": "DrivingTestBooking",
  "abi": [
    {
      "anonymous": false,
      "inputs": [
        {
          "indexed": false,
          "internalType": "uint256",
          "name": "bookingId",
          "type": "uint256"
        }
      ],
      "name": "BookingCancelled",
      "type": "event"
    },
    {
      "anonymous": false,
      "inputs": [
        {
          "indexed": false,
          "internalType": "uint256",
          "name": "bookingId",
          "type": "uint256"
        },
        {
          "indexed": false,
          "internalType": "address",
          "name": "candidate",
          "type": "address"
        },
        {
          "indexed": false,
          "internalType": "uint256",
          "name": "testDate",
          "type": "uint256"
        },
        {
          "indexed": false,
          "internalType": "string",
          "name": "location",
          "type": "string"
        },
        {
          "indexed": false,
          "internalType": "string",
          "name": "venue",
          "type": "string"
        }
      ],
      "name": "BookingCreated",
      "type": "event"
    },
    {
      "inputs": [
        {
          "internalType": "uint256",
          "name": "",
          "type": "uint256"
        }
      ],
      "name": "bookings",
      "outputs": [
        {
          "internalType": "address",
          "name": "candidate",
          "type": "address"
        },
        {
          "internalType": "uint256",
          "name": "testDate",
          "type": "uint256"
        },
        {
          "internalType": "string",
          "name": "location",
          "type": "string"
        },
        {
          "internalType": "string",
          "name": "venue",
          "type": "string"
        }
      ],
      "stateMutability": "view",
      "type": "function"
    },
    {
      "inputs": [],
      "name": "nextBookingId",
      "outputs": [
        {
          "internalType": "uint256",
          "name": "",
          "type": "uint256"
        }
      ],
      "stateMutability": "view",
      "type": "function"
    },
    {
      "inputs": [
        {
          "internalType": "uint256",
          "name": "_testDate",
          "type": "uint256"
        },
        {
          "internalType": "string",
          "name": "_location",
          "type": "string"
        },
        {
          "internalType": "string",
          "name": "_venue",
          "type": "string"
        }
      ],
      "name": "createBooking",
      "outputs": [],
      "stateMutability": "nonpayable",
      "type": "function"
    },
    {
      "inputs": [
        {
          "internalType": "uint256",
          "name": "_bookingId",
          "type": "uint256"
        }
      ],
      "name": "cancelBooking",
      "outputs": [],
      "stateMutability": "nonpayable",
      "type": "function"
    },
    {
      "inputs": [
        {
          "internalType": "uint256",
          "name": "_bookingId",
          "type": "uint256"
        }
      ],
      "name": "getBooking",
      "outputs": [
        {
          "internalType": "address",
          "name": "",
          "type": "address"
        },
        {
          "internalType": "uint256",
          "name": "",
          "type": "uint256"
        },
        {
          "internalType": "string",
          "name": "",
          "type": "string"
        },
        {
          "internalType": "string",
          "name": "",
          "type": "string"
        }
      ],
      "stateMutability": "view",
      "type": "function"
    }
  ],
  "bytecode": "0x608060405234801561000f575f80fd5b50610f548061001d5f395ff3fe608060405234801561000f575f80fd5b5060043610610055575f3560e01c80630dca825e146100595780631dab301e146100755780631dc64ab5146100a857806326f20c79146100c45780636a5c841a146100e2575b5f80fd5b610073600480360381019061006e919061076b565b610115565b005b61008f600480360381019061008a919061076b565b61024b565b60405161009f949392919061086e565b60405180910390f35b6100c260048036038101906100bd91906109eb565b6103a1565b005b6100cc610505565b6040516100d99190610a73565b60405180910390f35b6100fc60048036038101906100f7919061076b565b61050b565b60405161010c949392919061086e565b60405180910390f35b3373ffffffffffffffffffffffffffffffffffffffff165f808381526020019081526020015f205f015f9054906101000a900473ffffffffffffffffffffffffffffffffffffffff1673ffffffffffffffffffffffffffffffffffffffff16146101b4576040517f08c379a00000000000000000000000000000000000000000000000000000000081526004016101ab90610afc565b60405180910390fd5b5f808281526020019081526020015f205f8082015f6101000a81549073ffffffffffffffffffffffffffffffffffffffff0219169055600182015f9055600282015f61020091906106cf565b600382015f61020f91906106cf565b50507ff774c001cb52a3566b767ed6e37c92706acb2b80a3ff6049e2849cd62725d085816040516102409190610a73565b60405180910390a150565b5f602052805f5260405f205f91509050805f015f9054906101000a900473ffffffffffffffffffffffffffffffffffffffff169080600101549080600201805461029490610b47565b80601f01602080910402602001604051908101604052809291908181526020018280546102c090610b47565b801561030b5780601f106102e25761010080835404028352916020019161030b565b820191905f5260205f20905b8154815290600101906020018083116102ee57829003601f168201915b50505050509080600301805461032090610b47565b80601f016020809104026020016040519081016040528092919081815260200182805461034c90610b47565b80156103975780601f1061036e57610100808354040283529160200191610397565b820191905f5260205f20905b81548152906001019060200180831161037a57829003601f168201915b5050505050905084565b4283116103e3576040517f08c379a00000000000000000000000000000000000000000000000000000000081526004016103da90610bc1565b60405180910390fd5b5f60015f8154809291906103f690610c0c565b91905055905060405180608001604052803373ffffffffffffffffffffffffffffffffffffffff168152602001858152602001848152602001838152505f808381526020019081526020015f205f820151815f015f6101000a81548173ffffffffffffffffffffffffffffffffffffffff021916908373ffffffffffffffffffffffffffffffffffffffff1602179055506020820151816001015560408201518160020190816104a69190610df0565b5060608201518160030190816104bc9190610df0565b509050507f7f8a0d38740843d0ee5a72fbb0d8eb7ba17e011706fc41ad190cbd825d158b5881338686866040516104f7959493929190610ebf565b60405180910390a150505050565b60015481565b5f806060805f805f8781526020019081526020015f206040518060800160405290815f82015f9054906101000a900473ffffffffffffffffffffffffffffffffffffffff1673ffffffffffffffffffffffffffffffffffffffff1673ffffffffffffffffffffffffffffffffffffffff1681526020016001820154815260200160028201805461059a90610b47565b80601f01602080910402602001604051908101604052809291908181526020018280546105c690610b47565b80156106115780601f106105e857610100808354040283529160200191610611565b820191905f5260205f20905b8154815290600101906020018083116105f457829003601f168201915b5050505050815260200160038201805461062a90610b47565b80601f016020809104026020016040519081016040528092919081815260200182805461065690610b47565b80156106a15780601f10610678576101008083540402835291602001916106a1565b820191905f5260205f20905b81548152906001019060200180831161068457829003601f168201915b5050505050815250509050805f01518160200151826040015183606001519450945094509450509193509193565b5080546106db90610b47565b5f825580601f106106ec5750610709565b601f0160209004905f5260205f2090810190610708919061070c565b5b50565b5b80821115610723575f815f90555060010161070d565b5090565b5f604051905090565b5f80fd5b5f80fd5b5f819050919050565b61074a81610738565b8114610754575f80fd5b50565b5f8135905061076581610741565b92915050565b5f602082840312156107805761077f610730565b5b5f61078d84828501610757565b91505092915050565b5f73ffffffffffffffffffffffffffffffffffffffff82169050919050565b5f6107bf82610796565b9050919050565b6107cf816107b5565b82525050565b6107de81610738565b82525050565b5f81519050919050565b5f82825260208201905092915050565b5f5b8381101561081b578082015181840152602081019050610800565b5f8484015250505050565b5f601f19601f8301169050919050565b5f610840826107e4565b61084a81856107ee565b935061085a8185602086016107fe565b61086381610826565b840191505092915050565b5f6080820190506108815f8301876107c6565b61088e60208301866107d5565b81810360408301526108a08185610836565b905081810360608301526108b48184610836565b905095945050505050565b5f80fd5b5f80fd5b7f4e487b71000000000000000000000000000000000000000000000000000000005f52604160045260245ffd5b6108fd82610826565b810181811067ffffffffffffffff8211171561091c5761091b6108c7565b5b80604052505050565b5f61092e610727565b905061093a82826108f4565b919050565b5f67ffffffffffffffff821115610959576109586108c7565b5b61096282610826565b9050602081019050919050565b828183375f83830152505050565b5f61098f61098a8461093f565b610925565b9050828152602081018484840111156109ab576109aa6108c3565b5b6109b684828561096f565b509392505050565b5f82601f8301126109d2576109d16108bf565b5b81356109e284826020860161097d565b91505092915050565b5f805f60608486031215610a0257610a01610730565b5b5f610a0f86828701610757565b935050602084013567ffffffffffffffff811115610a3057610a2f610734565b5b610a3c868287016109be565b925050604084013567ffffffffffffffff811115610a5d57610a5c610734565b5b610a69868287016109be565b9150509250925092565b5f602082019050610a865f8301846107d5565b92915050565b7f4f6e6c792074686520626f6f6b696e67206f776e65722063616e2063616e63655f8201527f6c00000000000000000000000000000000000000000000000000000000000000602082015250565b5f610ae66021836107ee565b9150610af182610a8c565b604082019050919050565b5f6020820190508181035f830152610b1381610ada565b9050919050565b7f4e487b71000000000000000000000000000000000000000000000000000000005f52602260045260245ffd5b5f6002820490506001821680610b5e57607f821691505b602082108103610b7157610b70610b1a565b5b50919050565b7f546573742064617465206d75737420626520696e2074686520667574757265005f82015250565b5f610bab601f836107ee565b9150610bb682610b77565b602082019050919050565b5f6020820190508181035f830152610bd881610b9f565b9050919050565b7f4e487b71000000000000000000000000000000000000000000000000000000005f52601160045260245ffd5b5f610c1682610738565b91507fffffffffffffffffffffffffffffffffffffffffffffffffffffffffffffffff8203610c4857610c47610bdf565b5b600182019050919050565b5f819050815f5260205f209050919050565b5f6020601f8301049050919050565b5f82821b905092915050565b5f60088302610caf7fffffffffffffffffffffffffffffffffffffffffffffffffffffffffffffffff82610c74565b610cb98683610c74565b95508019841693508086168417925050509392505050565b5f819050919050565b5f610cf4610cef610cea84610738565b610cd1565b610738565b9050919050565b5f819050919050565b610d0d83610cda565b610d21610d1982610cfb565b848454610c80565b825550505050565b5f90565b610d35610d29565b610d40818484610d04565b505050565b5b81811015610d6357610d585f82610d2d565b600181019050610d46565b5050565b601f821115610da857610d7981610c53565b610d8284610c65565b81016020851015610d91578190505b610da5610d9d85610c65565b830182610d45565b50505b505050565b5f82821c905092915050565b5f610dc85f1984600802610dad565b1980831691505092915050565b5f610de08383610db9565b9150826002028217905092915050565b610df9826107e4565b67ffffffffffffffff811115610e1257610e116108c7565b5b610e1c8254610b47565b610e27828285610d67565b5f60209050601f831160018114610e58575f8415610e46578287015190505b610e508582610dd5565b865550610eb7565b601f198416610e6686610c53565b5f5b82811015610e8d57848901518255600182019150602085019450602081019050610e68565b86831015610eaa5784890151610ea6601f891682610db9565b8355505b6001600288020188555050505b505050505050565b5f60a082019050610ed25f8301886107d5565b610edf60208301876107c6565b610eec60408301866107d5565b8181036060830152610efe8185610836565b90508181036080830152610f128184610836565b9050969550505050505056fea26469706673582212209f3e21a8e056337e98e7f79b385a92f9431fc4a6d9f654050f449c2dcab4b26e64736f6c63430008150033",
  "immutableReferences": {},
  "source": "// SPDX-License-Identifier: MIT\npragma solidity >=0.4.22 <0.9.0;\n\ncontract DrivingTestBooking {\n    struct Booking {\n        address candidate;\n        uint256 testDate;\n        string location;\n        string venue;\n    }\n    \n    mapping(uint256 => Booking) public bookings;\n    uint256 public nextBookingId;\n    \n    event BookingCreated(uint256 bookingId, address candidate, uint256 testDate, string location, string venue);\n    event BookingCancelled(uint256 bookingId);\n    \n    function createBooking(uint256 _testDate, string memory _location, string memory _venue) public {\n        require(_testDate > block.timestamp, \"Test date must be in the future\");\n        \n        uint256 bookingId = nextBookingId++;\n        bookings[bookingId] = Booking(msg.sender, _testDate, _location, _venue);\n        \n        emit BookingCreated(bookingId, msg.sender, _testDate, _location, _venue);\n    }\n    \n    function cancelBooking(uint256 _bookingId) public {\n        require(bookings[_bookingId].candidate == msg.sender, \"Only the booking owner can cancel\");\n        delete bookings[_bookingId];\n        \n        emit BookingCancelled(_bookingId);\n    }\n    \n    function getBooking(uint256 _bookingId) public view returns (address, uint256, string memory, string memory) {\n        Booking memory booking = bookings[_bookingId];\n        return (booking.candidate, booking.testDate, booking.location, booking.venue);\n    }\n}",
  "sourcePath": "/Users/yuqi/Desktop/MSE learn/907_final/project/contracts/RoadTestBooking.sol",
  "compiler": {
    "name": "solc",
    "version": "0.8.21+commit.d9974bed.Emscripten.clang"
  },
  "schemaVersion": "3.4.16",
  "updatedAt": "2024-09-22T21:16:46.024Z",
  "devdoc": {
    "kind": "dev",
    "methods": {},
    "version": 1
  },
  "userdoc": {
    "kind": "user",
    "methods": {},
    "version": 1
  }
}